{"contracts/SimplePredictionMarket.sol":{"SimplePredictionMarket":{"abi":[{"inputs":[{"internalType":"address","name":"_usdc","type":"address"}],"stateMutability":"nonpayable","type":"constructor"},{"inputs":[{"internalType":"address","name":"owner","type":"address"}],"name":"OwnableInvalidOwner","type":"error"},{"inputs":[{"internalType":"address","name":"account","type":"address"}],"name":"OwnableUnauthorizedAccount","type":"error"},{"inputs":[],"name":"ReentrancyGuardReentrantCall","type":"error"},{"anonymous":false,"inputs":[{"indexed":true,"internalType":"uint256","name":"marketId","type":"uint256"},{"indexed":true,"internalType":"address","name":"user","type":"address"},{"indexed":false,"internalType":"bool","name":"isMoon","type":"bool"},{"indexed":false,"internalType":"uint256","name":"amount","type":"uint256"}],"name":"BetPlaced","type":"event"},{"anonymous":false,"inputs":[{"indexed":true,"internalType":"uint256","name":"marketId","type":"uint256"},{"indexed":false,"internalType":"string","name":"castUrl","type":"string"},{"indexed":false,"internalType":"uint256","name":"threshold","type":"uint256"},{"indexed":false,"internalType":"uint256","name":"deadline","type":"uint256"},{"indexed":false,"internalType":"address","name":"creator","type":"address"}],"name":"MarketCreated","type":"event"},{"anonymous":false,"inputs":[{"indexed":true,"internalType":"uint256","name":"marketId","type":"uint256"},{"indexed":false,"internalType":"enum SimplePredictionMarket.Outcome","name":"outcome","type":"uint8"},{"indexed":false,"internalType":"uint256","name":"totalPool","type":"uint256"}],"name":"MarketResolved","type":"event"},{"anonymous":false,"inputs":[{"indexed":true,"internalType":"address","name":"previousOwner","type":"address"},{"indexed":true,"internalType":"address","name":"newOwner","type":"address"}],"name":"OwnershipTransferred","type":"event"},{"anonymous":false,"inputs":[{"indexed":true,"internalType":"address","name":"to","type":"address"},{"indexed":false,"internalType":"uint256","name":"amount","type":"uint256"}],"name":"ProtocolFeesWithdrawn","type":"event"},{"anonymous":false,"inputs":[{"indexed":true,"internalType":"uint256","name":"marketId","type":"uint256"},{"indexed":true,"internalType":"address","name":"user","type":"address"},{"indexed":false,"internalType":"uint256","name":"amount","type":"uint256"}],"name":"WinningsClaimed","type":"event"},{"inputs":[],"name":"FEE_DENOMINATOR","outputs":[{"internalType":"uint256","name":"","type":"uint256"}],"stateMutability":"view","type":"function"},{"inputs":[],"name":"PROTOCOL_FEE","outputs":[{"internalType":"uint256","name":"","type":"uint256"}],"stateMutability":"view","type":"function"},{"inputs":[],"name":"USDC","outputs":[{"internalType":"contract IERC20","name":"","type":"address"}],"stateMutability":"view","type":"function"},{"inputs":[{"internalType":"uint256","name":"marketId","type":"uint256"},{"internalType":"uint256","name":"amount","type":"uint256"}],"name":"betDoom","outputs":[],"stateMutability":"nonpayable","type":"function"},{"inputs":[{"internalType":"uint256","name":"marketId","type":"uint256"},{"internalType":"uint256","name":"amount","type":"uint256"}],"name":"betMoon","outputs":[],"stateMutability":"nonpayable","type":"function"},{"inputs":[{"internalType":"uint256","name":"marketId","type":"uint256"},{"internalType":"uint256","name":"amount","type":"uint256"},{"internalType":"bool","name":"isMoon","type":"bool"}],"name":"calculatePotentialWinnings","outputs":[{"internalType":"uint256","name":"potentialWinnings","type":"uint256"}],"stateMutability":"view","type":"function"},{"inputs":[{"internalType":"uint256","name":"marketId","type":"uint256"}],"name":"cancelMarket","outputs":[],"stateMutability":"nonpayable","type":"function"},{"inputs":[{"internalType":"uint256","name":"marketId","type":"uint256"}],"name":"claimWinnings","outputs":[],"stateMutability":"nonpayable","type":"function"},{"inputs":[{"internalType":"string","name":"castUrl","type":"string"},{"internalType":"uint256","name":"threshold","type":"uint256"},{"internalType":"uint256","name":"deadline","type":"uint256"}],"name":"createMarket","outputs":[{"internalType":"uint256","name":"","type":"uint256"}],"stateMutability":"nonpayable","type":"function"},{"inputs":[{"internalType":"uint256","name":"marketId","type":"uint256"}],"name":"getMarket","outputs":[{"components":[{"internalType":"uint256","name":"id","type":"uint256"},{"internalType":"string","name":"castUrl","type":"string"},{"internalType":"uint256","name":"threshold","type":"uint256"},{"internalType":"uint256","name":"deadline","type":"uint256"},{"internalType":"uint256","name":"totalMoonBets","type":"uint256"},{"internalType":"uint256","name":"totalDoomBets","type":"uint256"},{"internalType":"enum SimplePredictionMarket.Outcome","name":"outcome","type":"uint8"},{"internalType":"bool","name":"resolved","type":"bool"},{"internalType":"address","name":"creator","type":"address"}],"internalType":"struct SimplePredictionMarket.Market","name":"","type":"tuple"}],"stateMutability":"view","type":"function"},{"inputs":[{"internalType":"uint256","name":"marketId","type":"uint256"}],"name":"getMoonOdds","outputs":[{"internalType":"uint256","name":"moonOdds","type":"uint256"}],"stateMutability":"view","type":"function"},{"inputs":[{"internalType":"uint256","name":"marketId","type":"uint256"},{"internalType":"address","name":"user","type":"address"}],"name":"getUserBet","outputs":[{"components":[{"internalType":"uint256","name":"moonAmount","type":"uint256"},{"internalType":"uint256","name":"doomAmount","type":"uint256"},{"internalType":"bool","name":"claimed","type":"bool"}],"internalType":"struct SimplePredictionMarket.UserBet","name":"","type":"tuple"}],"stateMutability":"view","type":"function"},{"inputs":[{"internalType":"uint256","name":"","type":"uint256"}],"name":"markets","outputs":[{"internalType":"uint256","name":"id","type":"uint256"},{"internalType":"string","name":"castUrl","type":"string"},{"internalType":"uint256","name":"threshold","type":"uint256"},{"internalType":"uint256","name":"deadline","type":"uint256"},{"internalType":"uint256","name":"totalMoonBets","type":"uint256"},{"internalType":"uint256","name":"totalDoomBets","type":"uint256"},{"internalType":"enum SimplePredictionMarket.Outcome","name":"outcome","type":"uint8"},{"internalType":"bool","name":"resolved","type":"bool"},{"internalType":"address","name":"creator","type":"address"}],"stateMutability":"view","type":"function"},{"inputs":[],"name":"nextMarketId","outputs":[{"internalType":"uint256","name":"","type":"uint256"}],"stateMutability":"view","type":"function"},{"inputs":[],"name":"owner","outputs":[{"internalType":"address","name":"","type":"address"}],"stateMutability":"view","type":"function"},{"inputs":[],"name":"renounceOwnership","outputs":[],"stateMutability":"nonpayable","type":"function"},{"inputs":[{"internalType":"uint256","name":"marketId","type":"uint256"},{"internalType":"enum SimplePredictionMarket.Outcome","name":"outcome","type":"uint8"}],"name":"resolveMarket","outputs":[],"stateMutability":"nonpayable","type":"function"},{"inputs":[],"name":"totalProtocolFees","outputs":[{"internalType":"uint256","name":"","type":"uint256"}],"stateMutability":"view","type":"function"},{"inputs":[{"internalType":"address","name":"newOwner","type":"address"}],"name":"transferOwnership","outputs":[],"stateMutability":"nonpayable","type":"function"},{"inputs":[{"internalType":"uint256","name":"","type":"uint256"},{"internalType":"address","name":"","type":"address"}],"name":"userBets","outputs":[{"internalType":"uint256","name":"moonAmount","type":"uint256"},{"internalType":"uint256","name":"doomAmount","type":"uint256"},{"internalType":"bool","name":"claimed","type":"bool"}],"stateMutability":"view","type":"function"},{"inputs":[{"internalType":"address","name":"to","type":"address"}],"name":"withdrawProtocolFees","outputs":[],"stateMutability":"nonpayable","type":"function"}],"evm":{"bytecode":{"linkReferences":{},"object":"60a060405260016002553480156200001657600080fd5b5060405162001d2738038062001d2783398101604081905262000039916200012b565b33806200006157604051631e4fbdf760e01b8152600060048201526024015b60405180910390fd5b6200006c81620000db565b50600180556001600160a01b038116620000c95760405162461bcd60e51b815260206004820152601460248201527f496e76616c696420555344432061646472657373000000000000000000000000604482015260640162000058565b6001600160a01b03166080526200015d565b600080546001600160a01b038381166001600160a01b0319831681178455604051919092169283917f8be0079c531659141344cd1fd0a4f28419497f9722a3daafe3b4186f6b6457e09190a35050565b6000602082840312156200013e57600080fd5b81516001600160a01b03811681146200015657600080fd5b9392505050565b608051611b996200018e60003960008181610228015281816104290152818161083101526113790152611b996000f3fe608060405234801561001057600080fd5b50600436106101375760003560e01c80638da5cb5b116100b8578063df55406e1161007c578063df55406e146102ee578063eb44fdd314610301578063f2fde38b14610321578063f526e39a14610334578063f74916081461033d578063f7abda791461035057600080fd5b80638da5cb5b14610262578063b1283e7714610273578063c03fb87c1461029b578063cfa51b16146102d2578063d73792a9146102e557600080fd5b8063715018a6116100ff578063715018a61461019b5780637c16cd9e146101a35780637d06a8e1146101b6578063886113851461021057806389a302711461022357600080fd5b80630b4501fd1461013c5780632d80caa514610157578063406ef2ef1461016c5780635f27163314610175578063677bd9ff14610188575b600080fd5b610144606481565b6040519081526020015b60405180910390f35b61016a610165366004611566565b610363565b005b61014460025481565b61014461018336600461158f565b6104f9565b61016a6101963660046115c8565b6105bd565b61016a610900565b61016a6101b13660046115c8565b610914565b6101f36101c43660046115e1565b600560209081526000928352604080842090915290825290208054600182015460029092015490919060ff1683565b60408051938452602084019290925215159082015260600161014e565b61016a61021e36600461160d565b6109de565b61024a7f000000000000000000000000000000000000000000000000000000000000000081565b6040516001600160a01b03909116815260200161014e565b6000546001600160a01b031661024a565b6102866102813660046115c8565b6109ff565b60405161014e999897969594939291906116ad565b6102ae6102a93660046115e1565b610ae2565b6040805182518152602080840151908201529181015115159082015260600161014e565b6101446102e0366004611715565b610b5b565b61014461271081565b61016a6102fc366004611794565b610de8565b61031461030f3660046115c8565b610fc7565b60405161014e91906117c8565b61016a61032f366004611566565b611114565b61014460035481565b61016a61034b36600461160d565b61114f565b61014461035e3660046115c8565b611163565b61036b6111c4565b6001600160a01b0381166103b85760405162461bcd60e51b815260206004820152600f60248201526e496e76616c6964206164647265737360881b60448201526064015b60405180910390fd5b600354806103fe5760405162461bcd60e51b81526020600482015260136024820152724e6f206665657320746f20776974686472617760681b60448201526064016103af565b600060035560405163a9059cbb60e01b81526001600160a01b038381166004830152602482018390527f0000000000000000000000000000000000000000000000000000000000000000169063a9059cbb906044016020604051808303816000875af1158015610472573d6000803e3d6000fd5b505050506040513d601f19601f82011682018060405250810190610496919061185c565b6104b25760405162461bcd60e51b81526004016103af90611879565b816001600160a01b03167fa087657e3d85162090ffd700fbfdf5070d816f63aa5da00063f6ffd369c8a6db826040516104ed91815260200190565b60405180910390a25050565b6000838152600460208190526040822090810154600582015484156105295761052286836118bd565b9150610536565b61053386826118bd565b90505b600061054282846118bd565b905060006127106105546064846118d0565b61055e91906118e7565b9050600061056c8284611909565b905060008861057b578461057d565b855b9050806000036105975760009750505050505050506105b6565b806105a28b846118d0565b6105ac91906118e7565b9750505050505050505b9392505050565b6105c56111f1565b600081815260046020526040812080549091036105f45760405162461bcd60e51b81526004016103af9061191c565b6006810154610100900460ff166106435760405162461bcd60e51b815260206004820152601360248201527213585c9ad95d081b9bdd081c995cdbdb1d9959606a1b60448201526064016103af565b60008281526005602090815260408083203384529091529020600281015460ff16156106a35760405162461bcd60e51b815260206004820152600f60248201526e105b1c9958591e4818db185a5b5959608a1b60448201526064016103af565b60006003600684015460ff1660038111156106c0576106c0611675565b036106dd57600182015482546106d691906118bd565b90506107bb565b6000806001600686015460ff1660038111156106fb576106fb611675565b0361070e5750508154600484015461071b565b5050600182015460058401545b6000821161075c5760405162461bcd60e51b815260206004820152600e60248201526d139bc81dda5b9b9a5b99c818995d60921b60448201526064016103af565b60008560050154866004015461077291906118bd565b905060006127106107846064846118d0565b61078e91906118e7565b9050600061079c8284611909565b9050836107a986836118d0565b6107b391906118e7565b955050505050505b600081116107fe5760405162461bcd60e51b815260206004820152601060248201526f4e6f7468696e6720746f20636c61696d60801b60448201526064016103af565b60028201805460ff1916600117905560405163a9059cbb60e01b8152336004820152602481018290526001600160a01b037f0000000000000000000000000000000000000000000000000000000000000000169063a9059cbb906044016020604051808303816000875af115801561087a573d6000803e3d6000fd5b505050506040513d601f19601f8201168201806040525081019061089e919061185c565b6108ba5760405162461bcd60e51b81526004016103af90611879565b604051818152339085907f5380cf6fe903b40c6d5a9e0dfbca2f3a423f0a21520b4d5947ed5169bdba946d9060200160405180910390a35050506108fd60018055565b50565b6109086111c4565b610912600061121b565b565b61091c6111c4565b6000818152600460205260408120805490910361094b5760405162461bcd60e51b81526004016103af9061191c565b6006810154610100900460ff16156109755760405162461bcd60e51b81526004016103af9061194b565b60068101805461ffff19166101031790556005810154600482015460009161099c916118bd565b9050827f661ce16e44a34377fc37c19874f4b1bec6e84b072cf8d318838fe17c20c58e446003836040516109d1929190611982565b60405180910390a2505050565b6109e66111f1565b6109f28282600061126b565b6109fb60018055565b5050565b60046020526000908152604090208054600182018054919291610a219061199d565b80601f0160208091040260200160405190810160405280929190818152602001828054610a4d9061199d565b8015610a9a5780601f10610a6f57610100808354040283529160200191610a9a565b820191906000526020600020905b815481529060010190602001808311610a7d57829003601f168201915b505050600284015460038501546004860154600587015460069097015495969295919450925060ff808216916101008104909116906001600160a01b03620100009091041689565b610b08604051806060016040528060008152602001600081526020016000151581525090565b5060008281526005602090815260408083206001600160a01b03851684528252918290208251606081018452815481526001820154928101929092526002015460ff161515918101919091525b92915050565b6000610b6942610e106118bd565b8211610baf5760405162461bcd60e51b8152602060048201526015602482015274088cac2c8d8d2dcca40daeae6e840c4ca407c4062d605b1b60448201526064016103af565b600a831015610c005760405162461bcd60e51b815260206004820152601760248201527f5468726573686f6c64206d757374206265203e3d20313000000000000000000060448201526064016103af565b83610c415760405162461bcd60e51b815260206004820152601160248201527010d85cdd08155493081c995c5d5a5c9959607a1b60448201526064016103af565b6002805460009182610c52836119d7565b91905055905060405180610120016040528082815260200187878080601f01602080910402602001604051908101604052809392919081815260200183838082843760009201829052509385525050506020820187905260408201869052606082018190526080820181905260a090910190815260006020808301829052336040938401528482526004815291902082518155908201516001820190610cf89082611a55565b5060408201518160020155606082015181600301556080820151816004015560a0820151816005015560c08201518160060160006101000a81548160ff02191690836003811115610d4b57610d4b611675565b021790555060e082015160069091018054610100938401516001600160a01b0316620100000262010000600160b01b031993151590940292909216610100600160b01b03199092169190911791909117905560405181907f747e87b17856feac975b1d007d7a17a5953fecf4f7b4f495bf39af6b4d5914f390610dd79089908990899089903390611b15565b60405180910390a295945050505050565b610df06111c4565b60008281526004602052604081208054909103610e1f5760405162461bcd60e51b81526004016103af9061191c565b6006810154610100900460ff1615610e495760405162461bcd60e51b81526004016103af9061194b565b8060030154421015610e955760405162461bcd60e51b815260206004820152601560248201527413585c9ad95d081b9bdd081e595d0818db1bdcd959605a1b60448201526064016103af565b6001826003811115610ea957610ea9611675565b1480610ec657506002826003811115610ec457610ec4611675565b145b610f045760405162461bcd60e51b815260206004820152600f60248201526e496e76616c6964206f7574636f6d6560881b60448201526064016103af565b60068101805461010061ff001982168117835584929161ffff1916176001836003811115610f3457610f34611675565b0217905550600081600501548260040154610f4f91906118bd565b90506000612710610f616064846118d0565b610f6b91906118e7565b90508060036000828254610f7f91906118bd565b92505081905550847f661ce16e44a34377fc37c19874f4b1bec6e84b072cf8d318838fe17c20c58e448584604051610fb8929190611982565b60405180910390a25050505050565b610fcf6114ed565b6004600083815260200190815260200160002060405180610120016040529081600082015481526020016001820180546110089061199d565b80601f01602080910402602001604051908101604052809291908181526020018280546110349061199d565b80156110815780601f1061105657610100808354040283529160200191611081565b820191906000526020600020905b81548152906001019060200180831161106457829003601f168201915b50505091835250506002820154602082015260038083015460408301526004830154606083015260058301546080830152600683015460a09092019160ff16908111156110d0576110d0611675565b60038111156110e1576110e1611675565b815260069190910154610100810460ff16151560208301526201000090046001600160a01b031660409091015292915050565b61111c6111c4565b6001600160a01b03811661114657604051631e4fbdf760e01b8152600060048201526024016103af565b6108fd8161121b565b6111576111f1565b6109f28282600161126b565b600081815260046020819052604082206005810154918101549091839161118a91906118bd565b90508060000361119f57506113889392505050565b8082600401546127106111b291906118d0565b6111bc91906118e7565b949350505050565b6000546001600160a01b031633146109125760405163118cdaa760e01b81523360048201526024016103af565b60026001540361121457604051633ee5aeb560e01b815260040160405180910390fd5b6002600155565b600080546001600160a01b038381166001600160a01b0319831681178455604051919092169283917f8be0079c531659141344cd1fd0a4f28419497f9722a3daafe3b4186f6b6457e09190a35050565b6000838152600460205260408120805490910361129a5760405162461bcd60e51b81526004016103af9061191c565b6006810154610100900460ff16156112c45760405162461bcd60e51b81526004016103af9061194b565b806003015442106113075760405162461bcd60e51b815260206004820152600d60248201526c13585c9ad95d0818db1bdcd959609a1b60448201526064016103af565b600083116113575760405162461bcd60e51b815260206004820152601760248201527f416d6f756e74206d75737420626520706f73697469766500000000000000000060448201526064016103af565b6040516323b872dd60e01b8152336004820152306024820152604481018490527f00000000000000000000000000000000000000000000000000000000000000006001600160a01b0316906323b872dd906064016020604051808303816000875af11580156113ca573d6000803e3d6000fd5b505050506040513d601f19601f820116820180604052508101906113ee919061185c565b61140a5760405162461bcd60e51b81526004016103af90611879565b811561145d578281600401600082825461142491906118bd565b90915550506000848152600560209081526040808320338452909152812080548592906114529084906118bd565b909155506114a89050565b8281600501600082825461147191906118bd565b90915550506000848152600560209081526040808320338452909152812060010180548592906114a29084906118bd565b90915550505b60408051831515815260208101859052339186917f4af71b021e799c62c158bd54636ca8da2fa26115a21a2dc6efe486ec104fd15f910160405180910390a350505050565b6040518061012001604052806000815260200160608152602001600081526020016000815260200160008152602001600081526020016000600381111561153657611536611675565b815260006020820181905260409091015290565b80356001600160a01b038116811461156157600080fd5b919050565b60006020828403121561157857600080fd5b6105b68261154a565b80151581146108fd57600080fd5b6000806000606084860312156115a457600080fd5b833592506020840135915060408401356115bd81611581565b809150509250925092565b6000602082840312156115da57600080fd5b5035919050565b600080604083850312156115f457600080fd5b823591506116046020840161154a565b90509250929050565b6000806040838503121561162057600080fd5b50508035926020909101359150565b6000815180845260005b8181101561165557602081850181015186830182015201611639565b506000602082860101526020601f19601f83011685010191505092915050565b634e487b7160e01b600052602160045260246000fd5b600481106116a957634e487b7160e01b600052602160045260246000fd5b9052565b60006101208b83528060208401526116c78184018c61162f565b9150508860408301528760608301528660808301528560a08301526116ef60c083018661168b565b92151560e08201526001600160a01b039190911661010090910152979650505050505050565b6000806000806060858703121561172b57600080fd5b843567ffffffffffffffff8082111561174357600080fd5b818701915087601f83011261175757600080fd5b81358181111561176657600080fd5b88602082850101111561177857600080fd5b6020928301999098509187013596604001359550909350505050565b600080604083850312156117a757600080fd5b823591506020830135600481106117bd57600080fd5b809150509250929050565b6020815281516020820152600060208301516101208060408501526117f161014085018361162f565b91506040850151606085015260608501516080850152608085015160a085015260a085015160c085015260c085015161182d60e086018261168b565b5060e08501516101006118438187018315159052565b909501516001600160a01b031693019290925250919050565b60006020828403121561186e57600080fd5b81516105b681611581565b6020808252601490820152731554d110c81d1c985b9cd9995c8819985a5b195960621b604082015260600190565b634e487b7160e01b600052601160045260246000fd5b80820180821115610b5557610b556118a7565b8082028115828204841417610b5557610b556118a7565b60008261190457634e487b7160e01b600052601260045260246000fd5b500490565b81810381811115610b5557610b556118a7565b60208082526015908201527413585c9ad95d08191bd95cc81b9bdd08195e1a5cdd605a1b604082015260600190565b60208082526017908201527f4d61726b657420616c7265616479207265736f6c766564000000000000000000604082015260600190565b60408101611990828561168b565b8260208301529392505050565b600181811c908216806119b157607f821691505b6020821081036119d157634e487b7160e01b600052602260045260246000fd5b50919050565b6000600182016119e9576119e96118a7565b5060010190565b634e487b7160e01b600052604160045260246000fd5b601f821115611a5057600081815260208120601f850160051c81016020861015611a2d5750805b601f850160051c820191505b81811015611a4c57828155600101611a39565b5050505b505050565b815167ffffffffffffffff811115611a6f57611a6f6119f0565b611a8381611a7d845461199d565b84611a06565b602080601f831160018114611ab85760008415611aa05750858301515b600019600386901b1c1916600185901b178555611a4c565b600085815260208120601f198616915b82811015611ae757888601518255948401946001909101908401611ac8565b5085821015611b055787850151600019600388901b60f8161c191681555b5050505050600190811b01905550565b60808152846080820152848660a0830137600060a0868301810191909152602082019490945260408101929092526001600160a01b03166060820152601f909201601f19169091010191905056fea2646970667358221220c1b28e89ba2ac9f95950b7a8d790b1845dd6c0624e35aa848c482671187025ca64736f6c63430008140033","opcodes":"PUSH1 0xA0 PUSH1 0x40 MSTORE PUSH1 0x1 PUSH1 0x2 SSTORE CALLVALUE DUP1 ISZERO PUSH3 0x16 JUMPI PUSH1 0x0 DUP1 REVERT JUMPDEST POP PUSH1 0x40 MLOAD PUSH3 0x1D27 CODESIZE SUB DUP1 PUSH3 0x1D27 DUP4 CODECOPY DUP2 ADD PUSH1 0x40 DUP2 SWAP1 MSTORE PUSH3 0x39 SWAP2 PUSH3 0x12B JUMP JUMPDEST CALLER DUP1 PUSH3 0x61 JUMPI PUSH1 0x40 MLOAD PUSH4 0x1E4FBDF7 PUSH1 0xE0 SHL DUP2 MSTORE PUSH1 0x0 PUSH1 0x4 DUP3 ADD MSTORE PUSH1 0x24 ADD JUMPDEST PUSH1 0x40 MLOAD DUP1 SWAP2 SUB SWAP1 REVERT JUMPDEST PUSH3 0x6C DUP2 PUSH3 0xDB JUMP JUMPDEST POP PUSH1 0x1 DUP1 SSTORE PUSH1 0x1 PUSH1 0x1 PUSH1 0xA0 SHL SUB DUP2 AND PUSH3 0xC9 JUMPI PUSH1 0x40 MLOAD PUSH3 0x461BCD PUSH1 0xE5 SHL DUP2 MSTORE PUSH1 0x20 PUSH1 0x4 DUP3 ADD MSTORE PUSH1 0x14 PUSH1 0x24 DUP3 ADD MSTORE PUSH32 0x496E76616C696420555344432061646472657373000000000000000000000000 PUSH1 0x44 DUP3 ADD MSTORE PUSH1 0x64 ADD PUSH3 0x58 JUMP JUMPDEST PUSH1 0x1 PUSH1 0x1 PUSH1 0xA0 SHL SUB AND PUSH1 0x80 MSTORE PUSH3 0x15D JUMP JUMPDEST PUSH1 0x0 DUP1 SLOAD PUSH1 0x1 PUSH1 0x1 PUSH1 0xA0 SHL SUB DUP4 DUP2 AND PUSH1 0x1 PUSH1 0x1 PUSH1 0xA0 SHL SUB NOT DUP4 AND DUP2 OR DUP5 SSTORE PUSH1 0x40 MLOAD SWAP2 SWAP1 SWAP3 AND SWAP3 DUP4 SWAP2 PUSH32 0x8BE0079C531659141344CD1FD0A4F28419497F9722A3DAAFE3B4186F6B6457E0 SWAP2 SWAP1 LOG3 POP POP JUMP JUMPDEST PUSH1 0x0 PUSH1 0x20 DUP3 DUP5 SUB SLT ISZERO PUSH3 0x13E JUMPI PUSH1 0x0 DUP1 REVERT JUMPDEST DUP2 MLOAD PUSH1 0x1 PUSH1 0x1 PUSH1 0xA0 SHL SUB DUP2 AND DUP2 EQ PUSH3 0x156 JUMPI PUSH1 0x0 DUP1 REVERT JUMPDEST SWAP4 SWAP3 POP POP POP JUMP JUMPDEST PUSH1 0x80 MLOAD PUSH2 0x1B99 PUSH3 0x18E PUSH1 0x0 CODECOPY PUSH1 0x0 DUP2 DUP2 PUSH2 0x228 ADD MSTORE DUP2 DUP2 PUSH2 0x429 ADD MSTORE DUP2 DUP2 PUSH2 0x831 ADD MSTORE PUSH2 0x1379 ADD MSTORE PUSH2 0x1B99 PUSH1 0x0 RETURN INVALID PUSH1 0x80 PUSH1 0x40 MSTORE CALLVALUE DUP1 ISZERO PUSH2 0x10 JUMPI PUSH1 0x0 DUP1 REVERT JUMPDEST POP PUSH1 0x4 CALLDATASIZE LT PUSH2 0x137 JUMPI PUSH1 0x0 CALLDATALOAD PUSH1 0xE0 SHR DUP1 PUSH4 0x8DA5CB5B GT PUSH2 0xB8 JUMPI DUP1 PUSH4 0xDF55406E GT PUSH2 0x7C JUMPI DUP1 PUSH4 0xDF55406E EQ PUSH2 0x2EE JUMPI DUP1 PUSH4 0xEB44FDD3 EQ PUSH2 0x301 JUMPI DUP1 PUSH4 0xF2FDE38B EQ PUSH2 0x321 JUMPI DUP1 PUSH4 0xF526E39A EQ PUSH2 0x334 JUMPI DUP1 PUSH4 0xF7491608 EQ PUSH2 0x33D JUMPI DUP1 PUSH4 0xF7ABDA79 EQ PUSH2 0x350 JUMPI PUSH1 0x0 DUP1 REVERT JUMPDEST DUP1 PUSH4 0x8DA5CB5B EQ PUSH2 0x262 JUMPI DUP1 PUSH4 0xB1283E77 EQ PUSH2 0x273 JUMPI DUP1 PUSH4 0xC03FB87C EQ PUSH2 0x29B JUMPI DUP1 PUSH4 0xCFA51B16 EQ PUSH2 0x2D2 JUMPI DUP1 PUSH4 0xD73792A9 EQ PUSH2 0x2E5 JUMPI PUSH1 0x0 DUP1 REVERT JUMPDEST DUP1 PUSH4 0x715018A6 GT PUSH2 0xFF JUMPI DUP1 PUSH4 0x715018A6 EQ PUSH2 0x19B JUMPI DUP1 PUSH4 0x7C16CD9E EQ PUSH2 0x1A3 JUMPI DUP1 PUSH4 0x7D06A8E1 EQ PUSH2 0x1B6 JUMPI DUP1 PUSH4 0x88611385 EQ PUSH2 0x210 JUMPI DUP1 PUSH4 0x89A30271 EQ PUSH2 0x223 JUMPI PUSH1 0x0 DUP1 REVERT JUMPDEST DUP1 PUSH4 0xB4501FD EQ PUSH2 0x13C JUMPI DUP1 PUSH4 0x2D80CAA5 EQ PUSH2 0x157 JUMPI DUP1 PUSH4 0x406EF2EF EQ PUSH2 0x16C JUMPI DUP1 PUSH4 0x5F271633 EQ PUSH2 0x175 JUMPI DUP1 PUSH4 0x677BD9FF EQ PUSH2 0x188 JUMPI JUMPDEST PUSH1 0x0 DUP1 REVERT JUMPDEST PUSH2 0x144 PUSH1 0x64 DUP2 JUMP JUMPDEST PUSH1 0x40 MLOAD SWAP1 DUP2 MSTORE PUSH1 0x20 ADD JUMPDEST PUSH1 0x40 MLOAD DUP1 SWAP2 SUB SWAP1 RETURN JUMPDEST PUSH2 0x16A PUSH2 0x165 CALLDATASIZE PUSH1 0x4 PUSH2 0x1566 JUMP JUMPDEST PUSH2 0x363 JUMP JUMPDEST STOP JUMPDEST PUSH2 0x144 PUSH1 0x2 SLOAD DUP2 JUMP JUMPDEST PUSH2 0x144 PUSH2 0x183 CALLDATASIZE PUSH1 0x4 PUSH2 0x158F JUMP JUMPDEST PUSH2 0x4F9 JUMP JUMPDEST PUSH2 0x16A PUSH2 0x196 CALLDATASIZE PUSH1 0x4 PUSH2 0x15C8 JUMP JUMPDEST PUSH2 0x5BD JUMP JUMPDEST PUSH2 0x16A PUSH2 0x900 JUMP JUMPDEST PUSH2 0x16A PUSH2 0x1B1 CALLDATASIZE PUSH1 0x4 PUSH2 0x15C8 JUMP JUMPDEST PUSH2 0x914 JUMP JUMPDEST PUSH2 0x1F3 PUSH2 0x1C4 CALLDATASIZE PUSH1 0x4 PUSH2 0x15E1 JUMP JUMPDEST PUSH1 0x5 PUSH1 0x20 SWAP1 DUP2 MSTORE PUSH1 0x0 SWAP3 DUP4 MSTORE PUSH1 0x40 DUP1 DUP5 KECCAK256 SWAP1 SWAP2 MSTORE SWAP1 DUP3 MSTORE SWAP1 KECCAK256 DUP1 SLOAD PUSH1 0x1 DUP3 ADD SLOAD PUSH1 0x2 SWAP1 SWAP3 ADD SLOAD SWAP1 SWAP2 SWAP1 PUSH1 0xFF AND DUP4 JUMP JUMPDEST PUSH1 0x40 DUP1 MLOAD SWAP4 DUP5 MSTORE PUSH1 0x20 DUP5 ADD SWAP3 SWAP1 SWAP3 MSTORE ISZERO ISZERO SWAP1 DUP3 ADD MSTORE PUSH1 0x60 ADD PUSH2 0x14E JUMP JUMPDEST PUSH2 0x16A PUSH2 0x21E CALLDATASIZE PUSH1 0x4 PUSH2 0x160D JUMP JUMPDEST PUSH2 0x9DE JUMP JUMPDEST PUSH2 0x24A PUSH32 0x0 DUP2 JUMP JUMPDEST PUSH1 0x40 MLOAD PUSH1 0x1 PUSH1 0x1 PUSH1 0xA0 SHL SUB SWAP1 SWAP2 AND DUP2 MSTORE PUSH1 0x20 ADD PUSH2 0x14E JUMP JUMPDEST PUSH1 0x0 SLOAD PUSH1 0x1 PUSH1 0x1 PUSH1 0xA0 SHL SUB AND PUSH2 0x24A JUMP JUMPDEST PUSH2 0x286 PUSH2 0x281 CALLDATASIZE PUSH1 0x4 PUSH2 0x15C8 JUMP JUMPDEST PUSH2 0x9FF JUMP JUMPDEST PUSH1 0x40 MLOAD PUSH2 0x14E SWAP10 SWAP9 SWAP8 SWAP7 SWAP6 SWAP5 SWAP4 SWAP3 SWAP2 SWAP1 PUSH2 0x16AD JUMP JUMPDEST PUSH2 0x2AE PUSH2 0x2A9 CALLDATASIZE PUSH1 0x4 PUSH2 0x15E1 JUMP JUMPDEST PUSH2 0xAE2 JUMP JUMPDEST PUSH1 0x40 DUP1 MLOAD DUP3 MLOAD DUP2 MSTORE PUSH1 0x20 DUP1 DUP5 ADD MLOAD SWAP1 DUP3 ADD MSTORE SWAP2 DUP2 ADD MLOAD ISZERO ISZERO SWAP1 DUP3 ADD MSTORE PUSH1 0x60 ADD PUSH2 0x14E JUMP JUMPDEST PUSH2 0x144 PUSH2 0x2E0 CALLDATASIZE PUSH1 0x4 PUSH2 0x1715 JUMP JUMPDEST PUSH2 0xB5B JUMP JUMPDEST PUSH2 0x144 PUSH2 0x2710 DUP2 JUMP JUMPDEST PUSH2 0x16A PUSH2 0x2FC CALLDATASIZE PUSH1 0x4 PUSH2 0x1794 JUMP JUMPDEST PUSH2 0xDE8 JUMP JUMPDEST PUSH2 0x314 PUSH2 0x30F CALLDATASIZE PUSH1 0x4 PUSH2 0x15C8 JUMP JUMPDEST PUSH2 0xFC7 JUMP JUMPDEST PUSH1 0x40 MLOAD PUSH2 0x14E SWAP2 SWAP1 PUSH2 0x17C8 JUMP JUMPDEST PUSH2 0x16A PUSH2 0x32F CALLDATASIZE PUSH1 0x4 PUSH2 0x1566 JUMP JUMPDEST PUSH2 0x1114 JUMP JUMPDEST PUSH2 0x144 PUSH1 0x3 SLOAD DUP2 JUMP JUMPDEST PUSH2 0x16A PUSH2 0x34B CALLDATASIZE PUSH1 0x4 PUSH2 0x160D JUMP JUMPDEST PUSH2 0x114F JUMP JUMPDEST PUSH2 0x144 PUSH2 0x35E CALLDATASIZE PUSH1 0x4 PUSH2 0x15C8 JUMP JUMPDEST PUSH2 0x1163 JUMP JUMPDEST PUSH2 0x36B PUSH2 0x11C4 JUMP JUMPDEST PUSH1 0x1 PUSH1 0x1 PUSH1 0xA0 SHL SUB DUP2 AND PUSH2 0x3B8 JUMPI PUSH1 0x40 MLOAD PUSH3 0x461BCD PUSH1 0xE5 SHL DUP2 MSTORE PUSH1 0x20 PUSH1 0x4 DUP3 ADD MSTORE PUSH1 0xF PUSH1 0x24 DUP3 ADD MSTORE PUSH15 0x496E76616C69642061646472657373 PUSH1 0x88 SHL PUSH1 0x44 DUP3 ADD MSTORE PUSH1 0x64 ADD JUMPDEST PUSH1 0x40 MLOAD DUP1 SWAP2 SUB SWAP1 REVERT JUMPDEST PUSH1 0x3 SLOAD DUP1 PUSH2 0x3FE JUMPI PUSH1 0x40 MLOAD PUSH3 0x461BCD PUSH1 0xE5 SHL DUP2 MSTORE PUSH1 0x20 PUSH1 0x4 DUP3 ADD MSTORE PUSH1 0x13 PUSH1 0x24 DUP3 ADD MSTORE PUSH19 0x4E6F206665657320746F207769746864726177 PUSH1 0x68 SHL PUSH1 0x44 DUP3 ADD MSTORE PUSH1 0x64 ADD PUSH2 0x3AF JUMP JUMPDEST PUSH1 0x0 PUSH1 0x3 SSTORE PUSH1 0x40 MLOAD PUSH4 0xA9059CBB PUSH1 0xE0 SHL DUP2 MSTORE PUSH1 0x1 PUSH1 0x1 PUSH1 0xA0 SHL SUB DUP4 DUP2 AND PUSH1 0x4 DUP4 ADD MSTORE PUSH1 0x24 DUP3 ADD DUP4 SWAP1 MSTORE PUSH32 0x0 AND SWAP1 PUSH4 0xA9059CBB SWAP1 PUSH1 0x44 ADD PUSH1 0x20 PUSH1 0x40 MLOAD DUP1 DUP4 SUB DUP2 PUSH1 0x0 DUP8 GAS CALL ISZERO DUP1 ISZERO PUSH2 0x472 JUMPI RETURNDATASIZE PUSH1 0x0 DUP1 RETURNDATACOPY RETURNDATASIZE PUSH1 0x0 REVERT JUMPDEST POP POP POP POP PUSH1 0x40 MLOAD RETURNDATASIZE PUSH1 0x1F NOT PUSH1 0x1F DUP3 ADD AND DUP3 ADD DUP1 PUSH1 0x40 MSTORE POP DUP2 ADD SWAP1 PUSH2 0x496 SWAP2 SWAP1 PUSH2 0x185C JUMP JUMPDEST PUSH2 0x4B2 JUMPI PUSH1 0x40 MLOAD PUSH3 0x461BCD PUSH1 0xE5 SHL DUP2 MSTORE PUSH1 0x4 ADD PUSH2 0x3AF SWAP1 PUSH2 0x1879 JUMP JUMPDEST DUP2 PUSH1 0x1 PUSH1 0x1 PUSH1 0xA0 SHL SUB AND PUSH32 0xA087657E3D85162090FFD700FBFDF5070D816F63AA5DA00063F6FFD369C8A6DB DUP3 PUSH1 0x40 MLOAD PUSH2 0x4ED SWAP2 DUP2 MSTORE PUSH1 0x20 ADD SWAP1 JUMP JUMPDEST PUSH1 0x40 MLOAD DUP1 SWAP2 SUB SWAP1 LOG2 POP POP JUMP JUMPDEST PUSH1 0x0 DUP4 DUP2 MSTORE PUSH1 0x4 PUSH1 0x20 DUP2 SWAP1 MSTORE PUSH1 0x40 DUP3 KECCAK256 SWAP1 DUP2 ADD SLOAD PUSH1 0x5 DUP3 ADD SLOAD DUP5 ISZERO PUSH2 0x529 JUMPI PUSH2 0x522 DUP7 DUP4 PUSH2 0x18BD JUMP JUMPDEST SWAP2 POP PUSH2 0x536 JUMP JUMPDEST PUSH2 0x533 DUP7 DUP3 PUSH2 0x18BD JUMP JUMPDEST SWAP1 POP JUMPDEST PUSH1 0x0 PUSH2 0x542 DUP3 DUP5 PUSH2 0x18BD JUMP JUMPDEST SWAP1 POP PUSH1 0x0 PUSH2 0x2710 PUSH2 0x554 PUSH1 0x64 DUP5 PUSH2 0x18D0 JUMP JUMPDEST PUSH2 0x55E SWAP2 SWAP1 PUSH2 0x18E7 JUMP JUMPDEST SWAP1 POP PUSH1 0x0 PUSH2 0x56C DUP3 DUP5 PUSH2 0x1909 JUMP JUMPDEST SWAP1 POP PUSH1 0x0 DUP9 PUSH2 0x57B JUMPI DUP5 PUSH2 0x57D JUMP JUMPDEST DUP6 JUMPDEST SWAP1 POP DUP1 PUSH1 0x0 SUB PUSH2 0x597 JUMPI PUSH1 0x0 SWAP8 POP POP POP POP POP POP POP POP PUSH2 0x5B6 JUMP JUMPDEST DUP1 PUSH2 0x5A2 DUP12 DUP5 PUSH2 0x18D0 JUMP JUMPDEST PUSH2 0x5AC SWAP2 SWAP1 PUSH2 0x18E7 JUMP JUMPDEST SWAP8 POP POP POP POP POP POP POP POP JUMPDEST SWAP4 SWAP3 POP POP POP JUMP JUMPDEST PUSH2 0x5C5 PUSH2 0x11F1 JUMP JUMPDEST PUSH1 0x0 DUP2 DUP2 MSTORE PUSH1 0x4 PUSH1 0x20 MSTORE PUSH1 0x40 DUP2 KECCAK256 DUP1 SLOAD SWAP1 SWAP2 SUB PUSH2 0x5F4 JUMPI PUSH1 0x40 MLOAD PUSH3 0x461BCD PUSH1 0xE5 SHL DUP2 MSTORE PUSH1 0x4 ADD PUSH2 0x3AF SWAP1 PUSH2 0x191C JUMP JUMPDEST PUSH1 0x6 DUP2 ADD SLOAD PUSH2 0x100 SWAP1 DIV PUSH1 0xFF AND PUSH2 0x643 JUMPI PUSH1 0x40 MLOAD PUSH3 0x461BCD PUSH1 0xE5 SHL DUP2 MSTORE PUSH1 0x20 PUSH1 0x4 DUP3 ADD MSTORE PUSH1 0x13 PUSH1 0x24 DUP3 ADD MSTORE PUSH19 0x13585C9AD95D081B9BDD081C995CDBDB1D9959 PUSH1 0x6A SHL PUSH1 0x44 DUP3 ADD MSTORE PUSH1 0x64 ADD PUSH2 0x3AF JUMP JUMPDEST PUSH1 0x0 DUP3 DUP2 MSTORE PUSH1 0x5 PUSH1 0x20 SWAP1 DUP2 MSTORE PUSH1 0x40 DUP1 DUP4 KECCAK256 CALLER DUP5 MSTORE SWAP1 SWAP2 MSTORE SWAP1 KECCAK256 PUSH1 0x2 DUP2 ADD SLOAD PUSH1 0xFF AND ISZERO PUSH2 0x6A3 JUMPI PUSH1 0x40 MLOAD PUSH3 0x461BCD PUSH1 0xE5 SHL DUP2 MSTORE PUSH1 0x20 PUSH1 0x4 DUP3 ADD MSTORE PUSH1 0xF PUSH1 0x24 DUP3 ADD MSTORE PUSH15 0x105B1C9958591E4818DB185A5B5959 PUSH1 0x8A SHL PUSH1 0x44 DUP3 ADD MSTORE PUSH1 0x64 ADD PUSH2 0x3AF JUMP JUMPDEST PUSH1 0x0 PUSH1 0x3 PUSH1 0x6 DUP5 ADD SLOAD PUSH1 0xFF AND PUSH1 0x3 DUP2 GT ISZERO PUSH2 0x6C0 JUMPI PUSH2 0x6C0 PUSH2 0x1675 JUMP JUMPDEST SUB PUSH2 0x6DD JUMPI PUSH1 0x1 DUP3 ADD SLOAD DUP3 SLOAD PUSH2 0x6D6 SWAP2 SWAP1 PUSH2 0x18BD JUMP JUMPDEST SWAP1 POP PUSH2 0x7BB JUMP JUMPDEST PUSH1 0x0 DUP1 PUSH1 0x1 PUSH1 0x6 DUP7 ADD SLOAD PUSH1 0xFF AND PUSH1 0x3 DUP2 GT ISZERO PUSH2 0x6FB JUMPI PUSH2 0x6FB PUSH2 0x1675 JUMP JUMPDEST SUB PUSH2 0x70E JUMPI POP POP DUP2 SLOAD PUSH1 0x4 DUP5 ADD SLOAD PUSH2 0x71B JUMP JUMPDEST POP POP PUSH1 0x1 DUP3 ADD SLOAD PUSH1 0x5 DUP5 ADD SLOAD JUMPDEST PUSH1 0x0 DUP3 GT PUSH2 0x75C JUMPI PUSH1 0x40 MLOAD PUSH3 0x461BCD PUSH1 0xE5 SHL DUP2 MSTORE PUSH1 0x20 PUSH1 0x4 DUP3 ADD MSTORE PUSH1 0xE PUSH1 0x24 DUP3 ADD MSTORE PUSH14 0x139BC81DDA5B9B9A5B99C818995D PUSH1 0x92 SHL PUSH1 0x44 DUP3 ADD MSTORE PUSH1 0x64 ADD PUSH2 0x3AF JUMP JUMPDEST PUSH1 0x0 DUP6 PUSH1 0x5 ADD SLOAD DUP7 PUSH1 0x4 ADD SLOAD PUSH2 0x772 SWAP2 SWAP1 PUSH2 0x18BD JUMP JUMPDEST SWAP1 POP PUSH1 0x0 PUSH2 0x2710 PUSH2 0x784 PUSH1 0x64 DUP5 PUSH2 0x18D0 JUMP JUMPDEST PUSH2 0x78E SWAP2 SWAP1 PUSH2 0x18E7 JUMP JUMPDEST SWAP1 POP PUSH1 0x0 PUSH2 0x79C DUP3 DUP5 PUSH2 0x1909 JUMP JUMPDEST SWAP1 POP DUP4 PUSH2 0x7A9 DUP7 DUP4 PUSH2 0x18D0 JUMP JUMPDEST PUSH2 0x7B3 SWAP2 SWAP1 PUSH2 0x18E7 JUMP JUMPDEST SWAP6 POP POP POP POP POP POP JUMPDEST PUSH1 0x0 DUP2 GT PUSH2 0x7FE JUMPI PUSH1 0x40 MLOAD PUSH3 0x461BCD PUSH1 0xE5 SHL DUP2 MSTORE PUSH1 0x20 PUSH1 0x4 DUP3 ADD MSTORE PUSH1 0x10 PUSH1 0x24 DUP3 ADD MSTORE PUSH16 0x4E6F7468696E6720746F20636C61696D PUSH1 0x80 SHL PUSH1 0x44 DUP3 ADD MSTORE PUSH1 0x64 ADD PUSH2 0x3AF JUMP JUMPDEST PUSH1 0x2 DUP3 ADD DUP1 SLOAD PUSH1 0xFF NOT AND PUSH1 0x1 OR SWAP1 SSTORE PUSH1 0x40 MLOAD PUSH4 0xA9059CBB PUSH1 0xE0 SHL DUP2 MSTORE CALLER PUSH1 0x4 DUP3 ADD MSTORE PUSH1 0x24 DUP2 ADD DUP3 SWAP1 MSTORE PUSH1 0x1 PUSH1 0x1 PUSH1 0xA0 SHL SUB PUSH32 0x0 AND SWAP1 PUSH4 0xA9059CBB SWAP1 PUSH1 0x44 ADD PUSH1 0x20 PUSH1 0x40 MLOAD DUP1 DUP4 SUB DUP2 PUSH1 0x0 DUP8 GAS CALL ISZERO DUP1 ISZERO PUSH2 0x87A JUMPI RETURNDATASIZE PUSH1 0x0 DUP1 RETURNDATACOPY RETURNDATASIZE PUSH1 0x0 REVERT JUMPDEST POP POP POP POP PUSH1 0x40 MLOAD RETURNDATASIZE PUSH1 0x1F NOT PUSH1 0x1F DUP3 ADD AND DUP3 ADD DUP1 PUSH1 0x40 MSTORE POP DUP2 ADD SWAP1 PUSH2 0x89E SWAP2 SWAP1 PUSH2 0x185C JUMP JUMPDEST PUSH2 0x8BA JUMPI PUSH1 0x40 MLOAD PUSH3 0x461BCD PUSH1 0xE5 SHL DUP2 MSTORE PUSH1 0x4 ADD PUSH2 0x3AF SWAP1 PUSH2 0x1879 JUMP JUMPDEST PUSH1 0x40 MLOAD DUP2 DUP2 MSTORE CALLER SWAP1 DUP6 SWAP1 PUSH32 0x5380CF6FE903B40C6D5A9E0DFBCA2F3A423F0A21520B4D5947ED5169BDBA946D SWAP1 PUSH1 0x20 ADD PUSH1 0x40 MLOAD DUP1 SWAP2 SUB SWAP1 LOG3 POP POP POP PUSH2 0x8FD PUSH1 0x1 DUP1 SSTORE JUMP JUMPDEST POP JUMP JUMPDEST PUSH2 0x908 PUSH2 0x11C4 JUMP JUMPDEST PUSH2 0x912 PUSH1 0x0 PUSH2 0x121B JUMP JUMPDEST JUMP JUMPDEST PUSH2 0x91C PUSH2 0x11C4 JUMP JUMPDEST PUSH1 0x0 DUP2 DUP2 MSTORE PUSH1 0x4 PUSH1 0x20 MSTORE PUSH1 0x40 DUP2 KECCAK256 DUP1 SLOAD SWAP1 SWAP2 SUB PUSH2 0x94B JUMPI PUSH1 0x40 MLOAD PUSH3 0x461BCD PUSH1 0xE5 SHL DUP2 MSTORE PUSH1 0x4 ADD PUSH2 0x3AF SWAP1 PUSH2 0x191C JUMP JUMPDEST PUSH1 0x6 DUP2 ADD SLOAD PUSH2 0x100 SWAP1 DIV PUSH1 0xFF AND ISZERO PUSH2 0x975 JUMPI PUSH1 0x40 MLOAD PUSH3 0x461BCD PUSH1 0xE5 SHL DUP2 MSTORE PUSH1 0x4 ADD PUSH2 0x3AF SWAP1 PUSH2 0x194B JUMP JUMPDEST PUSH1 0x6 DUP2 ADD DUP1 SLOAD PUSH2 0xFFFF NOT AND PUSH2 0x103 OR SWAP1 SSTORE PUSH1 0x5 DUP2 ADD SLOAD PUSH1 0x4 DUP3 ADD SLOAD PUSH1 0x0 SWAP2 PUSH2 0x99C SWAP2 PUSH2 0x18BD JUMP JUMPDEST SWAP1 POP DUP3 PUSH32 0x661CE16E44A34377FC37C19874F4B1BEC6E84B072CF8D318838FE17C20C58E44 PUSH1 0x3 DUP4 PUSH1 0x40 MLOAD PUSH2 0x9D1 SWAP3 SWAP2 SWAP1 PUSH2 0x1982 JUMP JUMPDEST PUSH1 0x40 MLOAD DUP1 SWAP2 SUB SWAP1 LOG2 POP POP POP JUMP JUMPDEST PUSH2 0x9E6 PUSH2 0x11F1 JUMP JUMPDEST PUSH2 0x9F2 DUP3 DUP3 PUSH1 0x0 PUSH2 0x126B JUMP JUMPDEST PUSH2 0x9FB PUSH1 0x1 DUP1 SSTORE JUMP JUMPDEST POP POP JUMP JUMPDEST PUSH1 0x4 PUSH1 0x20 MSTORE PUSH1 0x0 SWAP1 DUP2 MSTORE PUSH1 0x40 SWAP1 KECCAK256 DUP1 SLOAD PUSH1 0x1 DUP3 ADD DUP1 SLOAD SWAP2 SWAP3 SWAP2 PUSH2 0xA21 SWAP1 PUSH2 0x199D JUMP JUMPDEST DUP1 PUSH1 0x1F ADD PUSH1 0x20 DUP1 SWAP2 DIV MUL PUSH1 0x20 ADD PUSH1 0x40 MLOAD SWAP1 DUP2 ADD PUSH1 0x40 MSTORE DUP1 SWAP3 SWAP2 SWAP1 DUP2 DUP2 MSTORE PUSH1 0x20 ADD DUP3 DUP1 SLOAD PUSH2 0xA4D SWAP1 PUSH2 0x199D JUMP JUMPDEST DUP1 ISZERO PUSH2 0xA9A JUMPI DUP1 PUSH1 0x1F LT PUSH2 0xA6F JUMPI PUSH2 0x100 DUP1 DUP4 SLOAD DIV MUL DUP4 MSTORE SWAP2 PUSH1 0x20 ADD SWAP2 PUSH2 0xA9A JUMP JUMPDEST DUP3 ADD SWAP2 SWAP1 PUSH1 0x0 MSTORE PUSH1 0x20 PUSH1 0x0 KECCAK256 SWAP1 JUMPDEST DUP2 SLOAD DUP2 MSTORE SWAP1 PUSH1 0x1 ADD SWAP1 PUSH1 0x20 ADD DUP1 DUP4 GT PUSH2 0xA7D JUMPI DUP3 SWAP1 SUB PUSH1 0x1F AND DUP3 ADD SWAP2 JUMPDEST POP POP POP PUSH1 0x2 DUP5 ADD SLOAD PUSH1 0x3 DUP6 ADD SLOAD PUSH1 0x4 DUP7 ADD SLOAD PUSH1 0x5 DUP8 ADD SLOAD PUSH1 0x6 SWAP1 SWAP8 ADD SLOAD SWAP6 SWAP7 SWAP3 SWAP6 SWAP2 SWAP5 POP SWAP3 POP PUSH1 0xFF DUP1 DUP3 AND SWAP2 PUSH2 0x100 DUP2 DIV SWAP1 SWAP2 AND SWAP1 PUSH1 0x1 PUSH1 0x1 PUSH1 0xA0 SHL SUB PUSH3 0x10000 SWAP1 SWAP2 DIV AND DUP10 JUMP JUMPDEST PUSH2 0xB08 PUSH1 0x40 MLOAD DUP1 PUSH1 0x60 ADD PUSH1 0x40 MSTORE DUP1 PUSH1 0x0 DUP2 MSTORE PUSH1 0x20 ADD PUSH1 0x0 DUP2 MSTORE PUSH1 0x20 ADD PUSH1 0x0 ISZERO ISZERO DUP2 MSTORE POP SWAP1 JUMP JUMPDEST POP PUSH1 0x0 DUP3 DUP2 MSTORE PUSH1 0x5 PUSH1 0x20 SWAP1 DUP2 MSTORE PUSH1 0x40 DUP1 DUP4 KECCAK256 PUSH1 0x1 PUSH1 0x1 PUSH1 0xA0 SHL SUB DUP6 AND DUP5 MSTORE DUP3 MSTORE SWAP2 DUP3 SWAP1 KECCAK256 DUP3 MLOAD PUSH1 0x60 DUP2 ADD DUP5 MSTORE DUP2 SLOAD DUP2 MSTORE PUSH1 0x1 DUP3 ADD SLOAD SWAP3 DUP2 ADD SWAP3 SWAP1 SWAP3 MSTORE PUSH1 0x2 ADD SLOAD PUSH1 0xFF AND ISZERO ISZERO SWAP2 DUP2 ADD SWAP2 SWAP1 SWAP2 MSTORE JUMPDEST SWAP3 SWAP2 POP POP JUMP JUMPDEST PUSH1 0x0 PUSH2 0xB69 TIMESTAMP PUSH2 0xE10 PUSH2 0x18BD JUMP JUMPDEST DUP3 GT PUSH2 0xBAF JUMPI PUSH1 0x40 MLOAD PUSH3 0x461BCD PUSH1 0xE5 SHL DUP2 MSTORE PUSH1 0x20 PUSH1 0x4 DUP3 ADD MSTORE PUSH1 0x15 PUSH1 0x24 DUP3 ADD MSTORE PUSH21 0x88CAC2C8D8D2DCCA40DAEAE6E840C4CA407C4062D PUSH1 0x5B SHL PUSH1 0x44 DUP3 ADD MSTORE PUSH1 0x64 ADD PUSH2 0x3AF JUMP JUMPDEST PUSH1 0xA DUP4 LT ISZERO PUSH2 0xC00 JUMPI PUSH1 0x40 MLOAD PUSH3 0x461BCD PUSH1 0xE5 SHL DUP2 MSTORE PUSH1 0x20 PUSH1 0x4 DUP3 ADD MSTORE PUSH1 0x17 PUSH1 0x24 DUP3 ADD MSTORE PUSH32 0x5468726573686F6C64206D757374206265203E3D203130000000000000000000 PUSH1 0x44 DUP3 ADD MSTORE PUSH1 0x64 ADD PUSH2 0x3AF JUMP JUMPDEST DUP4 PUSH2 0xC41 JUMPI PUSH1 0x40 MLOAD PUSH3 0x461BCD PUSH1 0xE5 SHL DUP2 MSTORE PUSH1 0x20 PUSH1 0x4 DUP3 ADD MSTORE PUSH1 0x11 PUSH1 0x24 DUP3 ADD MSTORE PUSH17 0x10D85CDD08155493081C995C5D5A5C9959 PUSH1 0x7A SHL PUSH1 0x44 DUP3 ADD MSTORE PUSH1 0x64 ADD PUSH2 0x3AF JUMP JUMPDEST PUSH1 0x2 DUP1 SLOAD PUSH1 0x0 SWAP2 DUP3 PUSH2 0xC52 DUP4 PUSH2 0x19D7 JUMP JUMPDEST SWAP2 SWAP1 POP SSTORE SWAP1 POP PUSH1 0x40 MLOAD DUP1 PUSH2 0x120 ADD PUSH1 0x40 MSTORE DUP1 DUP3 DUP2 MSTORE PUSH1 0x20 ADD DUP8 DUP8 DUP1 DUP1 PUSH1 0x1F ADD PUSH1 0x20 DUP1 SWAP2 DIV MUL PUSH1 0x20 ADD PUSH1 0x40 MLOAD SWAP1 DUP2 ADD PUSH1 0x40 MSTORE DUP1 SWAP4 SWAP3 SWAP2 SWAP1 DUP2 DUP2 MSTORE PUSH1 0x20 ADD DUP4 DUP4 DUP1 DUP3 DUP5 CALLDATACOPY PUSH1 0x0 SWAP3 ADD DUP3 SWAP1 MSTORE POP SWAP4 DUP6 MSTORE POP POP POP PUSH1 0x20 DUP3 ADD DUP8 SWAP1 MSTORE PUSH1 0x40 DUP3 ADD DUP7 SWAP1 MSTORE PUSH1 0x60 DUP3 ADD DUP2 SWAP1 MSTORE PUSH1 0x80 DUP3 ADD DUP2 SWAP1 MSTORE PUSH1 0xA0 SWAP1 SWAP2 ADD SWAP1 DUP2 MSTORE PUSH1 0x0 PUSH1 0x20 DUP1 DUP4 ADD DUP3 SWAP1 MSTORE CALLER PUSH1 0x40 SWAP4 DUP5 ADD MSTORE DUP5 DUP3 MSTORE PUSH1 0x4 DUP2 MSTORE SWAP2 SWAP1 KECCAK256 DUP3 MLOAD DUP2 SSTORE SWAP1 DUP3 ADD MLOAD PUSH1 0x1 DUP3 ADD SWAP1 PUSH2 0xCF8 SWAP1 DUP3 PUSH2 0x1A55 JUMP JUMPDEST POP PUSH1 0x40 DUP3 ADD MLOAD DUP2 PUSH1 0x2 ADD SSTORE PUSH1 0x60 DUP3 ADD MLOAD DUP2 PUSH1 0x3 ADD SSTORE PUSH1 0x80 DUP3 ADD MLOAD DUP2 PUSH1 0x4 ADD SSTORE PUSH1 0xA0 DUP3 ADD MLOAD DUP2 PUSH1 0x5 ADD SSTORE PUSH1 0xC0 DUP3 ADD MLOAD DUP2 PUSH1 0x6 ADD PUSH1 0x0 PUSH2 0x100 EXP DUP2 SLOAD DUP2 PUSH1 0xFF MUL NOT AND SWAP1 DUP4 PUSH1 0x3 DUP2 GT ISZERO PUSH2 0xD4B JUMPI PUSH2 0xD4B PUSH2 0x1675 JUMP JUMPDEST MUL OR SWAP1 SSTORE POP PUSH1 0xE0 DUP3 ADD MLOAD PUSH1 0x6 SWAP1 SWAP2 ADD DUP1 SLOAD PUSH2 0x100 SWAP4 DUP5 ADD MLOAD PUSH1 0x1 PUSH1 0x1 PUSH1 0xA0 SHL SUB AND PUSH3 0x10000 MUL PUSH3 0x10000 PUSH1 0x1 PUSH1 0xB0 SHL SUB NOT SWAP4 ISZERO ISZERO SWAP1 SWAP5 MUL SWAP3 SWAP1 SWAP3 AND PUSH2 0x100 PUSH1 0x1 PUSH1 0xB0 SHL SUB NOT SWAP1 SWAP3 AND SWAP2 SWAP1 SWAP2 OR SWAP2 SWAP1 SWAP2 OR SWAP1 SSTORE PUSH1 0x40 MLOAD DUP2 SWAP1 PUSH32 0x747E87B17856FEAC975B1D007D7A17A5953FECF4F7B4F495BF39AF6B4D5914F3 SWAP1 PUSH2 0xDD7 SWAP1 DUP10 SWAP1 DUP10 SWAP1 DUP10 SWAP1 DUP10 SWAP1 CALLER SWAP1 PUSH2 0x1B15 JUMP JUMPDEST PUSH1 0x40 MLOAD DUP1 SWAP2 SUB SWAP1 LOG2 SWAP6 SWAP5 POP POP POP POP POP JUMP JUMPDEST PUSH2 0xDF0 PUSH2 0x11C4 JUMP JUMPDEST PUSH1 0x0 DUP3 DUP2 MSTORE PUSH1 0x4 PUSH1 0x20 MSTORE PUSH1 0x40 DUP2 KECCAK256 DUP1 SLOAD SWAP1 SWAP2 SUB PUSH2 0xE1F JUMPI PUSH1 0x40 MLOAD PUSH3 0x461BCD PUSH1 0xE5 SHL DUP2 MSTORE PUSH1 0x4 ADD PUSH2 0x3AF SWAP1 PUSH2 0x191C JUMP JUMPDEST PUSH1 0x6 DUP2 ADD SLOAD PUSH2 0x100 SWAP1 DIV PUSH1 0xFF AND ISZERO PUSH2 0xE49 JUMPI PUSH1 0x40 MLOAD PUSH3 0x461BCD PUSH1 0xE5 SHL DUP2 MSTORE PUSH1 0x4 ADD PUSH2 0x3AF SWAP1 PUSH2 0x194B JUMP JUMPDEST DUP1 PUSH1 0x3 ADD SLOAD TIMESTAMP LT ISZERO PUSH2 0xE95 JUMPI PUSH1 0x40 MLOAD PUSH3 0x461BCD PUSH1 0xE5 SHL DUP2 MSTORE PUSH1 0x20 PUSH1 0x4 DUP3 ADD MSTORE PUSH1 0x15 PUSH1 0x24 DUP3 ADD MSTORE PUSH21 0x13585C9AD95D081B9BDD081E595D0818DB1BDCD959 PUSH1 0x5A SHL PUSH1 0x44 DUP3 ADD MSTORE PUSH1 0x64 ADD PUSH2 0x3AF JUMP JUMPDEST PUSH1 0x1 DUP3 PUSH1 0x3 DUP2 GT ISZERO PUSH2 0xEA9 JUMPI PUSH2 0xEA9 PUSH2 0x1675 JUMP JUMPDEST EQ DUP1 PUSH2 0xEC6 JUMPI POP PUSH1 0x2 DUP3 PUSH1 0x3 DUP2 GT ISZERO PUSH2 0xEC4 JUMPI PUSH2 0xEC4 PUSH2 0x1675 JUMP JUMPDEST EQ JUMPDEST PUSH2 0xF04 JUMPI PUSH1 0x40 MLOAD PUSH3 0x461BCD PUSH1 0xE5 SHL DUP2 MSTORE PUSH1 0x20 PUSH1 0x4 DUP3 ADD MSTORE PUSH1 0xF PUSH1 0x24 DUP3 ADD MSTORE PUSH15 0x496E76616C6964206F7574636F6D65 PUSH1 0x88 SHL PUSH1 0x44 DUP3 ADD MSTORE PUSH1 0x64 ADD PUSH2 0x3AF JUMP JUMPDEST PUSH1 0x6 DUP2 ADD DUP1 SLOAD PUSH2 0x100 PUSH2 0xFF00 NOT DUP3 AND DUP2 OR DUP4 SSTORE DUP5 SWAP3 SWAP2 PUSH2 0xFFFF NOT AND OR PUSH1 0x1 DUP4 PUSH1 0x3 DUP2 GT ISZERO PUSH2 0xF34 JUMPI PUSH2 0xF34 PUSH2 0x1675 JUMP JUMPDEST MUL OR SWAP1 SSTORE POP PUSH1 0x0 DUP2 PUSH1 0x5 ADD SLOAD DUP3 PUSH1 0x4 ADD SLOAD PUSH2 0xF4F SWAP2 SWAP1 PUSH2 0x18BD JUMP JUMPDEST SWAP1 POP PUSH1 0x0 PUSH2 0x2710 PUSH2 0xF61 PUSH1 0x64 DUP5 PUSH2 0x18D0 JUMP JUMPDEST PUSH2 0xF6B SWAP2 SWAP1 PUSH2 0x18E7 JUMP JUMPDEST SWAP1 POP DUP1 PUSH1 0x3 PUSH1 0x0 DUP3 DUP3 SLOAD PUSH2 0xF7F SWAP2 SWAP1 PUSH2 0x18BD JUMP JUMPDEST SWAP3 POP POP DUP2 SWAP1 SSTORE POP DUP5 PUSH32 0x661CE16E44A34377FC37C19874F4B1BEC6E84B072CF8D318838FE17C20C58E44 DUP6 DUP5 PUSH1 0x40 MLOAD PUSH2 0xFB8 SWAP3 SWAP2 SWAP1 PUSH2 0x1982 JUMP JUMPDEST PUSH1 0x40 MLOAD DUP1 SWAP2 SUB SWAP1 LOG2 POP POP POP POP POP JUMP JUMPDEST PUSH2 0xFCF PUSH2 0x14ED JUMP JUMPDEST PUSH1 0x4 PUSH1 0x0 DUP4 DUP2 MSTORE PUSH1 0x20 ADD SWAP1 DUP2 MSTORE PUSH1 0x20 ADD PUSH1 0x0 KECCAK256 PUSH1 0x40 MLOAD DUP1 PUSH2 0x120 ADD PUSH1 0x40 MSTORE SWAP1 DUP2 PUSH1 0x0 DUP3 ADD SLOAD DUP2 MSTORE PUSH1 0x20 ADD PUSH1 0x1 DUP3 ADD DUP1 SLOAD PUSH2 0x1008 SWAP1 PUSH2 0x199D JUMP JUMPDEST DUP1 PUSH1 0x1F ADD PUSH1 0x20 DUP1 SWAP2 DIV MUL PUSH1 0x20 ADD PUSH1 0x40 MLOAD SWAP1 DUP2 ADD PUSH1 0x40 MSTORE DUP1 SWAP3 SWAP2 SWAP1 DUP2 DUP2 MSTORE PUSH1 0x20 ADD DUP3 DUP1 SLOAD PUSH2 0x1034 SWAP1 PUSH2 0x199D JUMP JUMPDEST DUP1 ISZERO PUSH2 0x1081 JUMPI DUP1 PUSH1 0x1F LT PUSH2 0x1056 JUMPI PUSH2 0x100 DUP1 DUP4 SLOAD DIV MUL DUP4 MSTORE SWAP2 PUSH1 0x20 ADD SWAP2 PUSH2 0x1081 JUMP JUMPDEST DUP3 ADD SWAP2 SWAP1 PUSH1 0x0 MSTORE PUSH1 0x20 PUSH1 0x0 KECCAK256 SWAP1 JUMPDEST DUP2 SLOAD DUP2 MSTORE SWAP1 PUSH1 0x1 ADD SWAP1 PUSH1 0x20 ADD DUP1 DUP4 GT PUSH2 0x1064 JUMPI DUP3 SWAP1 SUB PUSH1 0x1F AND DUP3 ADD SWAP2 JUMPDEST POP POP POP SWAP2 DUP4 MSTORE POP POP PUSH1 0x2 DUP3 ADD SLOAD PUSH1 0x20 DUP3 ADD MSTORE PUSH1 0x3 DUP1 DUP4 ADD SLOAD PUSH1 0x40 DUP4 ADD MSTORE PUSH1 0x4 DUP4 ADD SLOAD PUSH1 0x60 DUP4 ADD MSTORE PUSH1 0x5 DUP4 ADD SLOAD PUSH1 0x80 DUP4 ADD MSTORE PUSH1 0x6 DUP4 ADD SLOAD PUSH1 0xA0 SWAP1 SWAP3 ADD SWAP2 PUSH1 0xFF AND SWAP1 DUP2 GT ISZERO PUSH2 0x10D0 JUMPI PUSH2 0x10D0 PUSH2 0x1675 JUMP JUMPDEST PUSH1 0x3 DUP2 GT ISZERO PUSH2 0x10E1 JUMPI PUSH2 0x10E1 PUSH2 0x1675 JUMP JUMPDEST DUP2 MSTORE PUSH1 0x6 SWAP2 SWAP1 SWAP2 ADD SLOAD PUSH2 0x100 DUP2 DIV PUSH1 0xFF AND ISZERO ISZERO PUSH1 0x20 DUP4 ADD MSTORE PUSH3 0x10000 SWAP1 DIV PUSH1 0x1 PUSH1 0x1 PUSH1 0xA0 SHL SUB AND PUSH1 0x40 SWAP1 SWAP2 ADD MSTORE SWAP3 SWAP2 POP POP JUMP JUMPDEST PUSH2 0x111C PUSH2 0x11C4 JUMP JUMPDEST PUSH1 0x1 PUSH1 0x1 PUSH1 0xA0 SHL SUB DUP2 AND PUSH2 0x1146 JUMPI PUSH1 0x40 MLOAD PUSH4 0x1E4FBDF7 PUSH1 0xE0 SHL DUP2 MSTORE PUSH1 0x0 PUSH1 0x4 DUP3 ADD MSTORE PUSH1 0x24 ADD PUSH2 0x3AF JUMP JUMPDEST PUSH2 0x8FD DUP2 PUSH2 0x121B JUMP JUMPDEST PUSH2 0x1157 PUSH2 0x11F1 JUMP JUMPDEST PUSH2 0x9F2 DUP3 DUP3 PUSH1 0x1 PUSH2 0x126B JUMP JUMPDEST PUSH1 0x0 DUP2 DUP2 MSTORE PUSH1 0x4 PUSH1 0x20 DUP2 SWAP1 MSTORE PUSH1 0x40 DUP3 KECCAK256 PUSH1 0x5 DUP2 ADD SLOAD SWAP2 DUP2 ADD SLOAD SWAP1 SWAP2 DUP4 SWAP2 PUSH2 0x118A SWAP2 SWAP1 PUSH2 0x18BD JUMP JUMPDEST SWAP1 POP DUP1 PUSH1 0x0 SUB PUSH2 0x119F JUMPI POP PUSH2 0x1388 SWAP4 SWAP3 POP POP POP JUMP JUMPDEST DUP1 DUP3 PUSH1 0x4 ADD SLOAD PUSH2 0x2710 PUSH2 0x11B2 SWAP2 SWAP1 PUSH2 0x18D0 JUMP JUMPDEST PUSH2 0x11BC SWAP2 SWAP1 PUSH2 0x18E7 JUMP JUMPDEST SWAP5 SWAP4 POP POP POP POP JUMP JUMPDEST PUSH1 0x0 SLOAD PUSH1 0x1 PUSH1 0x1 PUSH1 0xA0 SHL SUB AND CALLER EQ PUSH2 0x912 JUMPI PUSH1 0x40 MLOAD PUSH4 0x118CDAA7 PUSH1 0xE0 SHL DUP2 MSTORE CALLER PUSH1 0x4 DUP3 ADD MSTORE PUSH1 0x24 ADD PUSH2 0x3AF JUMP JUMPDEST PUSH1 0x2 PUSH1 0x1 SLOAD SUB PUSH2 0x1214 JUMPI PUSH1 0x40 MLOAD PUSH4 0x3EE5AEB5 PUSH1 0xE0 SHL DUP2 MSTORE PUSH1 0x4 ADD PUSH1 0x40 MLOAD DUP1 SWAP2 SUB SWAP1 REVERT JUMPDEST PUSH1 0x2 PUSH1 0x1 SSTORE JUMP JUMPDEST PUSH1 0x0 DUP1 SLOAD PUSH1 0x1 PUSH1 0x1 PUSH1 0xA0 SHL SUB DUP4 DUP2 AND PUSH1 0x1 PUSH1 0x1 PUSH1 0xA0 SHL SUB NOT DUP4 AND DUP2 OR DUP5 SSTORE PUSH1 0x40 MLOAD SWAP2 SWAP1 SWAP3 AND SWAP3 DUP4 SWAP2 PUSH32 0x8BE0079C531659141344CD1FD0A4F28419497F9722A3DAAFE3B4186F6B6457E0 SWAP2 SWAP1 LOG3 POP POP JUMP JUMPDEST PUSH1 0x0 DUP4 DUP2 MSTORE PUSH1 0x4 PUSH1 0x20 MSTORE PUSH1 0x40 DUP2 KECCAK256 DUP1 SLOAD SWAP1 SWAP2 SUB PUSH2 0x129A JUMPI PUSH1 0x40 MLOAD PUSH3 0x461BCD PUSH1 0xE5 SHL DUP2 MSTORE PUSH1 0x4 ADD PUSH2 0x3AF SWAP1 PUSH2 0x191C JUMP JUMPDEST PUSH1 0x6 DUP2 ADD SLOAD PUSH2 0x100 SWAP1 DIV PUSH1 0xFF AND ISZERO PUSH2 0x12C4 JUMPI PUSH1 0x40 MLOAD PUSH3 0x461BCD PUSH1 0xE5 SHL DUP2 MSTORE PUSH1 0x4 ADD PUSH2 0x3AF SWAP1 PUSH2 0x194B JUMP JUMPDEST DUP1 PUSH1 0x3 ADD SLOAD TIMESTAMP LT PUSH2 0x1307 JUMPI PUSH1 0x40 MLOAD PUSH3 0x461BCD PUSH1 0xE5 SHL DUP2 MSTORE PUSH1 0x20 PUSH1 0x4 DUP3 ADD MSTORE PUSH1 0xD PUSH1 0x24 DUP3 ADD MSTORE PUSH13 0x13585C9AD95D0818DB1BDCD959 PUSH1 0x9A SHL PUSH1 0x44 DUP3 ADD MSTORE PUSH1 0x64 ADD PUSH2 0x3AF JUMP JUMPDEST PUSH1 0x0 DUP4 GT PUSH2 0x1357 JUMPI PUSH1 0x40 MLOAD PUSH3 0x461BCD PUSH1 0xE5 SHL DUP2 MSTORE PUSH1 0x20 PUSH1 0x4 DUP3 ADD MSTORE PUSH1 0x17 PUSH1 0x24 DUP3 ADD MSTORE PUSH32 0x416D6F756E74206D75737420626520706F736974697665000000000000000000 PUSH1 0x44 DUP3 ADD MSTORE PUSH1 0x64 ADD PUSH2 0x3AF JUMP JUMPDEST PUSH1 0x40 MLOAD PUSH4 0x23B872DD PUSH1 0xE0 SHL DUP2 MSTORE CALLER PUSH1 0x4 DUP3 ADD MSTORE ADDRESS PUSH1 0x24 DUP3 ADD MSTORE PUSH1 0x44 DUP2 ADD DUP5 SWAP1 MSTORE PUSH32 0x0 PUSH1 0x1 PUSH1 0x1 PUSH1 0xA0 SHL SUB AND SWAP1 PUSH4 0x23B872DD SWAP1 PUSH1 0x64 ADD PUSH1 0x20 PUSH1 0x40 MLOAD DUP1 DUP4 SUB DUP2 PUSH1 0x0 DUP8 GAS CALL ISZERO DUP1 ISZERO PUSH2 0x13CA JUMPI RETURNDATASIZE PUSH1 0x0 DUP1 RETURNDATACOPY RETURNDATASIZE PUSH1 0x0 REVERT JUMPDEST POP POP POP POP PUSH1 0x40 MLOAD RETURNDATASIZE PUSH1 0x1F NOT PUSH1 0x1F DUP3 ADD AND DUP3 ADD DUP1 PUSH1 0x40 MSTORE POP DUP2 ADD SWAP1 PUSH2 0x13EE SWAP2 SWAP1 PUSH2 0x185C JUMP JUMPDEST PUSH2 0x140A JUMPI PUSH1 0x40 MLOAD PUSH3 0x461BCD PUSH1 0xE5 SHL DUP2 MSTORE PUSH1 0x4 ADD PUSH2 0x3AF SWAP1 PUSH2 0x1879 JUMP JUMPDEST DUP2 ISZERO PUSH2 0x145D JUMPI DUP3 DUP2 PUSH1 0x4 ADD PUSH1 0x0 DUP3 DUP3 SLOAD PUSH2 0x1424 SWAP2 SWAP1 PUSH2 0x18BD JUMP JUMPDEST SWAP1 SWAP2 SSTORE POP POP PUSH1 0x0 DUP5 DUP2 MSTORE PUSH1 0x5 PUSH1 0x20 SWAP1 DUP2 MSTORE PUSH1 0x40 DUP1 DUP4 KECCAK256 CALLER DUP5 MSTORE SWAP1 SWAP2 MSTORE DUP2 KECCAK256 DUP1 SLOAD DUP6 SWAP3 SWAP1 PUSH2 0x1452 SWAP1 DUP5 SWAP1 PUSH2 0x18BD JUMP JUMPDEST SWAP1 SWAP2 SSTORE POP PUSH2 0x14A8 SWAP1 POP JUMP JUMPDEST DUP3 DUP2 PUSH1 0x5 ADD PUSH1 0x0 DUP3 DUP3 SLOAD PUSH2 0x1471 SWAP2 SWAP1 PUSH2 0x18BD JUMP JUMPDEST SWAP1 SWAP2 SSTORE POP POP PUSH1 0x0 DUP5 DUP2 MSTORE PUSH1 0x5 PUSH1 0x20 SWAP1 DUP2 MSTORE PUSH1 0x40 DUP1 DUP4 KECCAK256 CALLER DUP5 MSTORE SWAP1 SWAP2 MSTORE DUP2 KECCAK256 PUSH1 0x1 ADD DUP1 SLOAD DUP6 SWAP3 SWAP1 PUSH2 0x14A2 SWAP1 DUP5 SWAP1 PUSH2 0x18BD JUMP JUMPDEST SWAP1 SWAP2 SSTORE POP POP JUMPDEST PUSH1 0x40 DUP1 MLOAD DUP4 ISZERO ISZERO DUP2 MSTORE PUSH1 0x20 DUP2 ADD DUP6 SWAP1 MSTORE CALLER SWAP2 DUP7 SWAP2 PUSH32 0x4AF71B021E799C62C158BD54636CA8DA2FA26115A21A2DC6EFE486EC104FD15F SWAP2 ADD PUSH1 0x40 MLOAD DUP1 SWAP2 SUB SWAP1 LOG3 POP POP POP POP JUMP JUMPDEST PUSH1 0x40 MLOAD DUP1 PUSH2 0x120 ADD PUSH1 0x40 MSTORE DUP1 PUSH1 0x0 DUP2 MSTORE PUSH1 0x20 ADD PUSH1 0x60 DUP2 MSTORE PUSH1 0x20 ADD PUSH1 0x0 DUP2 MSTORE PUSH1 0x20 ADD PUSH1 0x0 DUP2 MSTORE PUSH1 0x20 ADD PUSH1 0x0 DUP2 MSTORE PUSH1 0x20 ADD PUSH1 0x0 DUP2 MSTORE PUSH1 0x20 ADD PUSH1 0x0 PUSH1 0x3 DUP2 GT ISZERO PUSH2 0x1536 JUMPI PUSH2 0x1536 PUSH2 0x1675 JUMP JUMPDEST DUP2 MSTORE PUSH1 0x0 PUSH1 0x20 DUP3 ADD DUP2 SWAP1 MSTORE PUSH1 0x40 SWAP1 SWAP2 ADD MSTORE SWAP1 JUMP JUMPDEST DUP1 CALLDATALOAD PUSH1 0x1 PUSH1 0x1 PUSH1 0xA0 SHL SUB DUP2 AND DUP2 EQ PUSH2 0x1561 JUMPI PUSH1 0x0 DUP1 REVERT JUMPDEST SWAP2 SWAP1 POP JUMP JUMPDEST PUSH1 0x0 PUSH1 0x20 DUP3 DUP5 SUB SLT ISZERO PUSH2 0x1578 JUMPI PUSH1 0x0 DUP1 REVERT JUMPDEST PUSH2 0x5B6 DUP3 PUSH2 0x154A JUMP JUMPDEST DUP1 ISZERO ISZERO DUP2 EQ PUSH2 0x8FD JUMPI PUSH1 0x0 DUP1 REVERT JUMPDEST PUSH1 0x0 DUP1 PUSH1 0x0 PUSH1 0x60 DUP5 DUP7 SUB SLT ISZERO PUSH2 0x15A4 JUMPI PUSH1 0x0 DUP1 REVERT JUMPDEST DUP4 CALLDATALOAD SWAP3 POP PUSH1 0x20 DUP5 ADD CALLDATALOAD SWAP2 POP PUSH1 0x40 DUP5 ADD CALLDATALOAD PUSH2 0x15BD DUP2 PUSH2 0x1581 JUMP JUMPDEST DUP1 SWAP2 POP POP SWAP3 POP SWAP3 POP SWAP3 JUMP JUMPDEST PUSH1 0x0 PUSH1 0x20 DUP3 DUP5 SUB SLT ISZERO PUSH2 0x15DA JUMPI PUSH1 0x0 DUP1 REVERT JUMPDEST POP CALLDATALOAD SWAP2 SWAP1 POP JUMP JUMPDEST PUSH1 0x0 DUP1 PUSH1 0x40 DUP4 DUP6 SUB SLT ISZERO PUSH2 0x15F4 JUMPI PUSH1 0x0 DUP1 REVERT JUMPDEST DUP3 CALLDATALOAD SWAP2 POP PUSH2 0x1604 PUSH1 0x20 DUP5 ADD PUSH2 0x154A JUMP JUMPDEST SWAP1 POP SWAP3 POP SWAP3 SWAP1 POP JUMP JUMPDEST PUSH1 0x0 DUP1 PUSH1 0x40 DUP4 DUP6 SUB SLT ISZERO PUSH2 0x1620 JUMPI PUSH1 0x0 DUP1 REVERT JUMPDEST POP POP DUP1 CALLDATALOAD SWAP3 PUSH1 0x20 SWAP1 SWAP2 ADD CALLDATALOAD SWAP2 POP JUMP JUMPDEST PUSH1 0x0 DUP2 MLOAD DUP1 DUP5 MSTORE PUSH1 0x0 JUMPDEST DUP2 DUP2 LT ISZERO PUSH2 0x1655 JUMPI PUSH1 0x20 DUP2 DUP6 ADD DUP2 ADD MLOAD DUP7 DUP4 ADD DUP3 ADD MSTORE ADD PUSH2 0x1639 JUMP JUMPDEST POP PUSH1 0x0 PUSH1 0x20 DUP3 DUP7 ADD ADD MSTORE PUSH1 0x20 PUSH1 0x1F NOT PUSH1 0x1F DUP4 ADD AND DUP6 ADD ADD SWAP2 POP POP SWAP3 SWAP2 POP POP JUMP JUMPDEST PUSH4 0x4E487B71 PUSH1 0xE0 SHL PUSH1 0x0 MSTORE PUSH1 0x21 PUSH1 0x4 MSTORE PUSH1 0x24 PUSH1 0x0 REVERT JUMPDEST PUSH1 0x4 DUP2 LT PUSH2 0x16A9 JUMPI PUSH4 0x4E487B71 PUSH1 0xE0 SHL PUSH1 0x0 MSTORE PUSH1 0x21 PUSH1 0x4 MSTORE PUSH1 0x24 PUSH1 0x0 REVERT JUMPDEST SWAP1 MSTORE JUMP JUMPDEST PUSH1 0x0 PUSH2 0x120 DUP12 DUP4 MSTORE DUP1 PUSH1 0x20 DUP5 ADD MSTORE PUSH2 0x16C7 DUP2 DUP5 ADD DUP13 PUSH2 0x162F JUMP JUMPDEST SWAP2 POP POP DUP9 PUSH1 0x40 DUP4 ADD MSTORE DUP8 PUSH1 0x60 DUP4 ADD MSTORE DUP7 PUSH1 0x80 DUP4 ADD MSTORE DUP6 PUSH1 0xA0 DUP4 ADD MSTORE PUSH2 0x16EF PUSH1 0xC0 DUP4 ADD DUP7 PUSH2 0x168B JUMP JUMPDEST SWAP3 ISZERO ISZERO PUSH1 0xE0 DUP3 ADD MSTORE PUSH1 0x1 PUSH1 0x1 PUSH1 0xA0 SHL SUB SWAP2 SWAP1 SWAP2 AND PUSH2 0x100 SWAP1 SWAP2 ADD MSTORE SWAP8 SWAP7 POP POP POP POP POP POP POP JUMP JUMPDEST PUSH1 0x0 DUP1 PUSH1 0x0 DUP1 PUSH1 0x60 DUP6 DUP8 SUB SLT ISZERO PUSH2 0x172B JUMPI PUSH1 0x0 DUP1 REVERT JUMPDEST DUP5 CALLDATALOAD PUSH8 0xFFFFFFFFFFFFFFFF DUP1 DUP3 GT ISZERO PUSH2 0x1743 JUMPI PUSH1 0x0 DUP1 REVERT JUMPDEST DUP2 DUP8 ADD SWAP2 POP DUP8 PUSH1 0x1F DUP4 ADD SLT PUSH2 0x1757 JUMPI PUSH1 0x0 DUP1 REVERT JUMPDEST DUP2 CALLDATALOAD DUP2 DUP2 GT ISZERO PUSH2 0x1766 JUMPI PUSH1 0x0 DUP1 REVERT JUMPDEST DUP9 PUSH1 0x20 DUP3 DUP6 ADD ADD GT ISZERO PUSH2 0x1778 JUMPI PUSH1 0x0 DUP1 REVERT JUMPDEST PUSH1 0x20 SWAP3 DUP4 ADD SWAP10 SWAP1 SWAP9 POP SWAP2 DUP8 ADD CALLDATALOAD SWAP7 PUSH1 0x40 ADD CALLDATALOAD SWAP6 POP SWAP1 SWAP4 POP POP POP POP JUMP JUMPDEST PUSH1 0x0 DUP1 PUSH1 0x40 DUP4 DUP6 SUB SLT ISZERO PUSH2 0x17A7 JUMPI PUSH1 0x0 DUP1 REVERT JUMPDEST DUP3 CALLDATALOAD SWAP2 POP PUSH1 0x20 DUP4 ADD CALLDATALOAD PUSH1 0x4 DUP2 LT PUSH2 0x17BD JUMPI PUSH1 0x0 DUP1 REVERT JUMPDEST DUP1 SWAP2 POP POP SWAP3 POP SWAP3 SWAP1 POP JUMP JUMPDEST PUSH1 0x20 DUP2 MSTORE DUP2 MLOAD PUSH1 0x20 DUP3 ADD MSTORE PUSH1 0x0 PUSH1 0x20 DUP4 ADD MLOAD PUSH2 0x120 DUP1 PUSH1 0x40 DUP6 ADD MSTORE PUSH2 0x17F1 PUSH2 0x140 DUP6 ADD DUP4 PUSH2 0x162F JUMP JUMPDEST SWAP2 POP PUSH1 0x40 DUP6 ADD MLOAD PUSH1 0x60 DUP6 ADD MSTORE PUSH1 0x60 DUP6 ADD MLOAD PUSH1 0x80 DUP6 ADD MSTORE PUSH1 0x80 DUP6 ADD MLOAD PUSH1 0xA0 DUP6 ADD MSTORE PUSH1 0xA0 DUP6 ADD MLOAD PUSH1 0xC0 DUP6 ADD MSTORE PUSH1 0xC0 DUP6 ADD MLOAD PUSH2 0x182D PUSH1 0xE0 DUP7 ADD DUP3 PUSH2 0x168B JUMP JUMPDEST POP PUSH1 0xE0 DUP6 ADD MLOAD PUSH2 0x100 PUSH2 0x1843 DUP2 DUP8 ADD DUP4 ISZERO ISZERO SWAP1 MSTORE JUMP JUMPDEST SWAP1 SWAP6 ADD MLOAD PUSH1 0x1 PUSH1 0x1 PUSH1 0xA0 SHL SUB AND SWAP4 ADD SWAP3 SWAP1 SWAP3 MSTORE POP SWAP2 SWAP1 POP JUMP JUMPDEST PUSH1 0x0 PUSH1 0x20 DUP3 DUP5 SUB SLT ISZERO PUSH2 0x186E JUMPI PUSH1 0x0 DUP1 REVERT JUMPDEST DUP2 MLOAD PUSH2 0x5B6 DUP2 PUSH2 0x1581 JUMP JUMPDEST PUSH1 0x20 DUP1 DUP3 MSTORE PUSH1 0x14 SWAP1 DUP3 ADD MSTORE PUSH20 0x1554D110C81D1C985B9CD9995C8819985A5B1959 PUSH1 0x62 SHL PUSH1 0x40 DUP3 ADD MSTORE PUSH1 0x60 ADD SWAP1 JUMP JUMPDEST PUSH4 0x4E487B71 PUSH1 0xE0 SHL PUSH1 0x0 MSTORE PUSH1 0x11 PUSH1 0x4 MSTORE PUSH1 0x24 PUSH1 0x0 REVERT JUMPDEST DUP1 DUP3 ADD DUP1 DUP3 GT ISZERO PUSH2 0xB55 JUMPI PUSH2 0xB55 PUSH2 0x18A7 JUMP JUMPDEST DUP1 DUP3 MUL DUP2 ISZERO DUP3 DUP3 DIV DUP5 EQ OR PUSH2 0xB55 JUMPI PUSH2 0xB55 PUSH2 0x18A7 JUMP JUMPDEST PUSH1 0x0 DUP3 PUSH2 0x1904 JUMPI PUSH4 0x4E487B71 PUSH1 0xE0 SHL PUSH1 0x0 MSTORE PUSH1 0x12 PUSH1 0x4 MSTORE PUSH1 0x24 PUSH1 0x0 REVERT JUMPDEST POP DIV SWAP1 JUMP JUMPDEST DUP2 DUP2 SUB DUP2 DUP2 GT ISZERO PUSH2 0xB55 JUMPI PUSH2 0xB55 PUSH2 0x18A7 JUMP JUMPDEST PUSH1 0x20 DUP1 DUP3 MSTORE PUSH1 0x15 SWAP1 DUP3 ADD MSTORE PUSH21 0x13585C9AD95D08191BD95CC81B9BDD08195E1A5CDD PUSH1 0x5A SHL PUSH1 0x40 DUP3 ADD MSTORE PUSH1 0x60 ADD SWAP1 JUMP JUMPDEST PUSH1 0x20 DUP1 DUP3 MSTORE PUSH1 0x17 SWAP1 DUP3 ADD MSTORE PUSH32 0x4D61726B657420616C7265616479207265736F6C766564000000000000000000 PUSH1 0x40 DUP3 ADD MSTORE PUSH1 0x60 ADD SWAP1 JUMP JUMPDEST PUSH1 0x40 DUP2 ADD PUSH2 0x1990 DUP3 DUP6 PUSH2 0x168B JUMP JUMPDEST DUP3 PUSH1 0x20 DUP4 ADD MSTORE SWAP4 SWAP3 POP POP POP JUMP JUMPDEST PUSH1 0x1 DUP2 DUP2 SHR SWAP1 DUP3 AND DUP1 PUSH2 0x19B1 JUMPI PUSH1 0x7F DUP3 AND SWAP2 POP JUMPDEST PUSH1 0x20 DUP3 LT DUP2 SUB PUSH2 0x19D1 JUMPI PUSH4 0x4E487B71 PUSH1 0xE0 SHL PUSH1 0x0 MSTORE PUSH1 0x22 PUSH1 0x4 MSTORE PUSH1 0x24 PUSH1 0x0 REVERT JUMPDEST POP SWAP2 SWAP1 POP JUMP JUMPDEST PUSH1 0x0 PUSH1 0x1 DUP3 ADD PUSH2 0x19E9 JUMPI PUSH2 0x19E9 PUSH2 0x18A7 JUMP JUMPDEST POP PUSH1 0x1 ADD SWAP1 JUMP JUMPDEST PUSH4 0x4E487B71 PUSH1 0xE0 SHL PUSH1 0x0 MSTORE PUSH1 0x41 PUSH1 0x4 MSTORE PUSH1 0x24 PUSH1 0x0 REVERT JUMPDEST PUSH1 0x1F DUP3 GT ISZERO PUSH2 0x1A50 JUMPI PUSH1 0x0 DUP2 DUP2 MSTORE PUSH1 0x20 DUP2 KECCAK256 PUSH1 0x1F DUP6 ADD PUSH1 0x5 SHR DUP2 ADD PUSH1 0x20 DUP7 LT ISZERO PUSH2 0x1A2D JUMPI POP DUP1 JUMPDEST PUSH1 0x1F DUP6 ADD PUSH1 0x5 SHR DUP3 ADD SWAP2 POP JUMPDEST DUP2 DUP2 LT ISZERO PUSH2 0x1A4C JUMPI DUP3 DUP2 SSTORE PUSH1 0x1 ADD PUSH2 0x1A39 JUMP JUMPDEST POP POP POP JUMPDEST POP POP POP JUMP JUMPDEST DUP2 MLOAD PUSH8 0xFFFFFFFFFFFFFFFF DUP2 GT ISZERO PUSH2 0x1A6F JUMPI PUSH2 0x1A6F PUSH2 0x19F0 JUMP JUMPDEST PUSH2 0x1A83 DUP2 PUSH2 0x1A7D DUP5 SLOAD PUSH2 0x199D JUMP JUMPDEST DUP5 PUSH2 0x1A06 JUMP JUMPDEST PUSH1 0x20 DUP1 PUSH1 0x1F DUP4 GT PUSH1 0x1 DUP2 EQ PUSH2 0x1AB8 JUMPI PUSH1 0x0 DUP5 ISZERO PUSH2 0x1AA0 JUMPI POP DUP6 DUP4 ADD MLOAD JUMPDEST PUSH1 0x0 NOT PUSH1 0x3 DUP7 SWAP1 SHL SHR NOT AND PUSH1 0x1 DUP6 SWAP1 SHL OR DUP6 SSTORE PUSH2 0x1A4C JUMP JUMPDEST PUSH1 0x0 DUP6 DUP2 MSTORE PUSH1 0x20 DUP2 KECCAK256 PUSH1 0x1F NOT DUP7 AND SWAP2 JUMPDEST DUP3 DUP2 LT ISZERO PUSH2 0x1AE7 JUMPI DUP9 DUP7 ADD MLOAD DUP3 SSTORE SWAP5 DUP5 ADD SWAP5 PUSH1 0x1 SWAP1 SWAP2 ADD SWAP1 DUP5 ADD PUSH2 0x1AC8 JUMP JUMPDEST POP DUP6 DUP3 LT ISZERO PUSH2 0x1B05 JUMPI DUP8 DUP6 ADD MLOAD PUSH1 0x0 NOT PUSH1 0x3 DUP9 SWAP1 SHL PUSH1 0xF8 AND SHR NOT AND DUP2 SSTORE JUMPDEST POP POP POP POP POP PUSH1 0x1 SWAP1 DUP2 SHL ADD SWAP1 SSTORE POP JUMP JUMPDEST PUSH1 0x80 DUP2 MSTORE DUP5 PUSH1 0x80 DUP3 ADD MSTORE DUP5 DUP7 PUSH1 0xA0 DUP4 ADD CALLDATACOPY PUSH1 0x0 PUSH1 0xA0 DUP7 DUP4 ADD DUP2 ADD SWAP2 SWAP1 SWAP2 MSTORE PUSH1 0x20 DUP3 ADD SWAP5 SWAP1 SWAP5 MSTORE PUSH1 0x40 DUP2 ADD SWAP3 SWAP1 SWAP3 MSTORE PUSH1 0x1 PUSH1 0x1 PUSH1 0xA0 SHL SUB AND PUSH1 0x60 DUP3 ADD MSTORE PUSH1 0x1F SWAP1 SWAP3 ADD PUSH1 0x1F NOT AND SWAP1 SWAP2 ADD ADD SWAP2 SWAP1 POP JUMP INVALID LOG2 PUSH5 0x6970667358 0x22 SLT KECCAK256 0xC1 0xB2 DUP15 DUP10 0xBA 0x2A 0xC9 0xF9 MSIZE POP 0xB7 0xA8 0xD7 SWAP1 0xB1 DUP5 0x5D 0xD6 0xC0 PUSH3 0x4E35AA DUP5 DUP13 BASEFEE 0x26 PUSH18 0x187025CA64736F6C63430008140033000000 "},"methodIdentifiers":{"FEE_DENOMINATOR()":"d73792a9","PROTOCOL_FEE()":"0b4501fd","USDC()":"89a30271","betDoom(uint256,uint256)":"88611385","betMoon(uint256,uint256)":"f7491608","calculatePotentialWinnings(uint256,uint256,bool)":"5f271633","cancelMarket(uint256)":"7c16cd9e","claimWinnings(uint256)":"677bd9ff","createMarket(string,uint256,uint256)":"cfa51b16","getMarket(uint256)":"eb44fdd3","getMoonOdds(uint256)":"f7abda79","getUserBet(uint256,address)":"c03fb87c","markets(uint256)":"b1283e77","nextMarketId()":"406ef2ef","owner()":"8da5cb5b","renounceOwnership()":"715018a6","resolveMarket(uint256,uint8)":"df55406e","totalProtocolFees()":"f526e39a","transferOwnership(address)":"f2fde38b","userBets(uint256,address)":"7d06a8e1","withdrawProtocolFees(address)":"2d80caa5"}}}}}