{
  "_format": "hh-sol-artifact-1",
  "contractName": "SimplePredictionMarket",
  "sourceName": "contracts/SimplePredictionMarket.sol",
  "abi": [
    {
      "inputs": [
        {
          "internalType": "address",
          "name": "_usdc",
          "type": "address"
        }
      ],
      "stateMutability": "nonpayable",
      "type": "constructor"
    },
    {
      "inputs": [
        {
          "internalType": "address",
          "name": "owner",
          "type": "address"
        }
      ],
      "name": "OwnableInvalidOwner",
      "type": "error"
    },
    {
      "inputs": [
        {
          "internalType": "address",
          "name": "account",
          "type": "address"
        }
      ],
      "name": "OwnableUnauthorizedAccount",
      "type": "error"
    },
    {
      "inputs": [],
      "name": "ReentrancyGuardReentrantCall",
      "type": "error"
    },
    {
      "anonymous": false,
      "inputs": [
        {
          "indexed": true,
          "internalType": "uint256",
          "name": "marketId",
          "type": "uint256"
        },
        {
          "indexed": true,
          "internalType": "address",
          "name": "user",
          "type": "address"
        },
        {
          "indexed": false,
          "internalType": "bool",
          "name": "isMoon",
          "type": "bool"
        },
        {
          "indexed": false,
          "internalType": "uint256",
          "name": "amount",
          "type": "uint256"
        }
      ],
      "name": "BetPlaced",
      "type": "event"
    },
    {
      "anonymous": false,
      "inputs": [
        {
          "indexed": true,
          "internalType": "uint256",
          "name": "marketId",
          "type": "uint256"
        },
        {
          "indexed": false,
          "internalType": "string",
          "name": "castUrl",
          "type": "string"
        },
        {
          "indexed": false,
          "internalType": "uint256",
          "name": "threshold",
          "type": "uint256"
        },
        {
          "indexed": false,
          "internalType": "uint256",
          "name": "deadline",
          "type": "uint256"
        },
        {
          "indexed": false,
          "internalType": "address",
          "name": "creator",
          "type": "address"
        }
      ],
      "name": "MarketCreated",
      "type": "event"
    },
    {
      "anonymous": false,
      "inputs": [
        {
          "indexed": true,
          "internalType": "uint256",
          "name": "marketId",
          "type": "uint256"
        },
        {
          "indexed": false,
          "internalType": "enum SimplePredictionMarket.Outcome",
          "name": "outcome",
          "type": "uint8"
        },
        {
          "indexed": false,
          "internalType": "uint256",
          "name": "totalPool",
          "type": "uint256"
        }
      ],
      "name": "MarketResolved",
      "type": "event"
    },
    {
      "anonymous": false,
      "inputs": [
        {
          "indexed": true,
          "internalType": "address",
          "name": "previousOwner",
          "type": "address"
        },
        {
          "indexed": true,
          "internalType": "address",
          "name": "newOwner",
          "type": "address"
        }
      ],
      "name": "OwnershipTransferred",
      "type": "event"
    },
    {
      "anonymous": false,
      "inputs": [
        {
          "indexed": true,
          "internalType": "address",
          "name": "to",
          "type": "address"
        },
        {
          "indexed": false,
          "internalType": "uint256",
          "name": "amount",
          "type": "uint256"
        }
      ],
      "name": "ProtocolFeesWithdrawn",
      "type": "event"
    },
    {
      "anonymous": false,
      "inputs": [
        {
          "indexed": true,
          "internalType": "uint256",
          "name": "marketId",
          "type": "uint256"
        },
        {
          "indexed": true,
          "internalType": "address",
          "name": "user",
          "type": "address"
        },
        {
          "indexed": false,
          "internalType": "uint256",
          "name": "amount",
          "type": "uint256"
        }
      ],
      "name": "WinningsClaimed",
      "type": "event"
    },
    {
      "inputs": [],
      "name": "FEE_DENOMINATOR",
      "outputs": [
        {
          "internalType": "uint256",
          "name": "",
          "type": "uint256"
        }
      ],
      "stateMutability": "view",
      "type": "function"
    },
    {
      "inputs": [],
      "name": "PROTOCOL_FEE",
      "outputs": [
        {
          "internalType": "uint256",
          "name": "",
          "type": "uint256"
        }
      ],
      "stateMutability": "view",
      "type": "function"
    },
    {
      "inputs": [],
      "name": "USDC",
      "outputs": [
        {
          "internalType": "contract IERC20",
          "name": "",
          "type": "address"
        }
      ],
      "stateMutability": "view",
      "type": "function"
    },
    {
      "inputs": [
        {
          "internalType": "uint256",
          "name": "marketId",
          "type": "uint256"
        },
        {
          "internalType": "uint256",
          "name": "amount",
          "type": "uint256"
        }
      ],
      "name": "betDoom",
      "outputs": [],
      "stateMutability": "nonpayable",
      "type": "function"
    },
    {
      "inputs": [
        {
          "internalType": "uint256",
          "name": "marketId",
          "type": "uint256"
        },
        {
          "internalType": "uint256",
          "name": "amount",
          "type": "uint256"
        }
      ],
      "name": "betMoon",
      "outputs": [],
      "stateMutability": "nonpayable",
      "type": "function"
    },
    {
      "inputs": [
        {
          "internalType": "uint256",
          "name": "marketId",
          "type": "uint256"
        },
        {
          "internalType": "uint256",
          "name": "amount",
          "type": "uint256"
        },
        {
          "internalType": "bool",
          "name": "isMoon",
          "type": "bool"
        }
      ],
      "name": "calculatePotentialWinnings",
      "outputs": [
        {
          "internalType": "uint256",
          "name": "potentialWinnings",
          "type": "uint256"
        }
      ],
      "stateMutability": "view",
      "type": "function"
    },
    {
      "inputs": [
        {
          "internalType": "uint256",
          "name": "marketId",
          "type": "uint256"
        }
      ],
      "name": "claimWinnings",
      "outputs": [],
      "stateMutability": "nonpayable",
      "type": "function"
    },
    {
      "inputs": [
        {
          "internalType": "string",
          "name": "castUrl",
          "type": "string"
        },
        {
          "internalType": "uint256",
          "name": "threshold",
          "type": "uint256"
        },
        {
          "internalType": "uint256",
          "name": "deadline",
          "type": "uint256"
        }
      ],
      "name": "createMarket",
      "outputs": [
        {
          "internalType": "uint256",
          "name": "",
          "type": "uint256"
        }
      ],
      "stateMutability": "nonpayable",
      "type": "function"
    },
    {
      "inputs": [
        {
          "internalType": "uint256",
          "name": "marketId",
          "type": "uint256"
        }
      ],
      "name": "getMarket",
      "outputs": [
        {
          "components": [
            {
              "internalType": "uint256",
              "name": "id",
              "type": "uint256"
            },
            {
              "internalType": "string",
              "name": "castUrl",
              "type": "string"
            },
            {
              "internalType": "uint256",
              "name": "threshold",
              "type": "uint256"
            },
            {
              "internalType": "uint256",
              "name": "deadline",
              "type": "uint256"
            },
            {
              "internalType": "uint256",
              "name": "totalMoonBets",
              "type": "uint256"
            },
            {
              "internalType": "uint256",
              "name": "totalDoomBets",
              "type": "uint256"
            },
            {
              "internalType": "enum SimplePredictionMarket.Outcome",
              "name": "outcome",
              "type": "uint8"
            },
            {
              "internalType": "bool",
              "name": "resolved",
              "type": "bool"
            },
            {
              "internalType": "address",
              "name": "creator",
              "type": "address"
            }
          ],
          "internalType": "struct SimplePredictionMarket.Market",
          "name": "",
          "type": "tuple"
        }
      ],
      "stateMutability": "view",
      "type": "function"
    },
    {
      "inputs": [
        {
          "internalType": "uint256",
          "name": "marketId",
          "type": "uint256"
        }
      ],
      "name": "getMoonOdds",
      "outputs": [
        {
          "internalType": "uint256",
          "name": "moonOdds",
          "type": "uint256"
        }
      ],
      "stateMutability": "view",
      "type": "function"
    },
    {
      "inputs": [
        {
          "internalType": "uint256",
          "name": "marketId",
          "type": "uint256"
        },
        {
          "internalType": "address",
          "name": "user",
          "type": "address"
        }
      ],
      "name": "getUserBet",
      "outputs": [
        {
          "components": [
            {
              "internalType": "uint256",
              "name": "moonAmount",
              "type": "uint256"
            },
            {
              "internalType": "uint256",
              "name": "doomAmount",
              "type": "uint256"
            },
            {
              "internalType": "bool",
              "name": "claimed",
              "type": "bool"
            }
          ],
          "internalType": "struct SimplePredictionMarket.UserBet",
          "name": "",
          "type": "tuple"
        }
      ],
      "stateMutability": "view",
      "type": "function"
    },
    {
      "inputs": [
        {
          "internalType": "uint256",
          "name": "",
          "type": "uint256"
        }
      ],
      "name": "markets",
      "outputs": [
        {
          "internalType": "uint256",
          "name": "id",
          "type": "uint256"
        },
        {
          "internalType": "string",
          "name": "castUrl",
          "type": "string"
        },
        {
          "internalType": "uint256",
          "name": "threshold",
          "type": "uint256"
        },
        {
          "internalType": "uint256",
          "name": "deadline",
          "type": "uint256"
        },
        {
          "internalType": "uint256",
          "name": "totalMoonBets",
          "type": "uint256"
        },
        {
          "internalType": "uint256",
          "name": "totalDoomBets",
          "type": "uint256"
        },
        {
          "internalType": "enum SimplePredictionMarket.Outcome",
          "name": "outcome",
          "type": "uint8"
        },
        {
          "internalType": "bool",
          "name": "resolved",
          "type": "bool"
        },
        {
          "internalType": "address",
          "name": "creator",
          "type": "address"
        }
      ],
      "stateMutability": "view",
      "type": "function"
    },
    {
      "inputs": [],
      "name": "nextMarketId",
      "outputs": [
        {
          "internalType": "uint256",
          "name": "",
          "type": "uint256"
        }
      ],
      "stateMutability": "view",
      "type": "function"
    },
    {
      "inputs": [],
      "name": "owner",
      "outputs": [
        {
          "internalType": "address",
          "name": "",
          "type": "address"
        }
      ],
      "stateMutability": "view",
      "type": "function"
    },
    {
      "inputs": [],
      "name": "renounceOwnership",
      "outputs": [],
      "stateMutability": "nonpayable",
      "type": "function"
    },
    {
      "inputs": [
        {
          "internalType": "uint256",
          "name": "marketId",
          "type": "uint256"
        },
        {
          "internalType": "enum SimplePredictionMarket.Outcome",
          "name": "outcome",
          "type": "uint8"
        }
      ],
      "name": "resolveMarket",
      "outputs": [],
      "stateMutability": "nonpayable",
      "type": "function"
    },
    {
      "inputs": [],
      "name": "totalProtocolFees",
      "outputs": [
        {
          "internalType": "uint256",
          "name": "",
          "type": "uint256"
        }
      ],
      "stateMutability": "view",
      "type": "function"
    },
    {
      "inputs": [
        {
          "internalType": "address",
          "name": "newOwner",
          "type": "address"
        }
      ],
      "name": "transferOwnership",
      "outputs": [],
      "stateMutability": "nonpayable",
      "type": "function"
    },
    {
      "inputs": [
        {
          "internalType": "uint256",
          "name": "",
          "type": "uint256"
        },
        {
          "internalType": "address",
          "name": "",
          "type": "address"
        }
      ],
      "name": "userBets",
      "outputs": [
        {
          "internalType": "uint256",
          "name": "moonAmount",
          "type": "uint256"
        },
        {
          "internalType": "uint256",
          "name": "doomAmount",
          "type": "uint256"
        },
        {
          "internalType": "bool",
          "name": "claimed",
          "type": "bool"
        }
      ],
      "stateMutability": "view",
      "type": "function"
    },
    {
      "inputs": [
        {
          "internalType": "address",
          "name": "to",
          "type": "address"
        }
      ],
      "name": "withdrawProtocolFees",
      "outputs": [],
      "stateMutability": "nonpayable",
      "type": "function"
    }
  ],
  "bytecode": "0x60a060405260016002553480156200001657600080fd5b5060405162001be138038062001be183398101604081905262000039916200012b565b33806200006157604051631e4fbdf760e01b8152600060048201526024015b60405180910390fd5b6200006c81620000db565b50600180556001600160a01b038116620000c95760405162461bcd60e51b815260206004820152601460248201527f496e76616c696420555344432061646472657373000000000000000000000000604482015260640162000058565b6001600160a01b03166080526200015d565b600080546001600160a01b038381166001600160a01b0319831681178455604051919092169283917f8be0079c531659141344cd1fd0a4f28419497f9722a3daafe3b4186f6b6457e09190a35050565b6000602082840312156200013e57600080fd5b81516001600160a01b03811681146200015657600080fd5b9392505050565b608051611a536200018e6000396000818161020a0152818161040b0152818161078b015261126a0152611a536000f3fe608060405234801561001057600080fd5b506004361061012c5760003560e01c8063b1283e77116100ad578063eb44fdd311610071578063eb44fdd3146102e3578063f2fde38b14610303578063f526e39a14610316578063f74916081461031f578063f7abda791461033257600080fd5b8063b1283e7714610255578063c03fb87c1461027d578063cfa51b16146102b4578063d73792a9146102c7578063df55406e146102d057600080fd5b8063715018a6116100f4578063715018a6146101905780637d06a8e11461019857806388611385146101f257806389a30271146102055780638da5cb5b1461024457600080fd5b80630b4501fd146101315780632d80caa51461014c578063406ef2ef146101615780635f2716331461016a578063677bd9ff1461017d575b600080fd5b610139606481565b6040519081526020015b60405180910390f35b61015f61015a366004611457565b610345565b005b61013960025481565b610139610178366004611480565b6104db565b61015f61018b3660046114b9565b61059f565b61015f610867565b6101d56101a63660046114d2565b600560209081526000928352604080842090915290825290208054600182015460029092015490919060ff1683565b604080519384526020840192909252151590820152606001610143565b61015f6102003660046114fe565b61087b565b61022c7f000000000000000000000000000000000000000000000000000000000000000081565b6040516001600160a01b039091168152602001610143565b6000546001600160a01b031661022c565b6102686102633660046114b9565b61089c565b6040516101439998979695949392919061159e565b61029061028b3660046114d2565b61097f565b60408051825181526020808401519082015291810151151590820152606001610143565b6101396102c2366004611606565b6109f8565b61013961271081565b61015f6102de366004611685565b610c85565b6102f66102f13660046114b9565b610e8e565b60405161014391906116b9565b61015f610311366004611457565b610fdb565b61013960035481565b61015f61032d3660046114fe565b611016565b6101396103403660046114b9565b61102a565b61034d61108b565b6001600160a01b03811661039a5760405162461bcd60e51b815260206004820152600f60248201526e496e76616c6964206164647265737360881b60448201526064015b60405180910390fd5b600354806103e05760405162461bcd60e51b81526020600482015260136024820152724e6f206665657320746f20776974686472617760681b6044820152606401610391565b600060035560405163a9059cbb60e01b81526001600160a01b038381166004830152602482018390527f0000000000000000000000000000000000000000000000000000000000000000169063a9059cbb906044016020604051808303816000875af1158015610454573d6000803e3d6000fd5b505050506040513d601f19601f82011682018060405250810190610478919061174d565b6104945760405162461bcd60e51b81526004016103919061176a565b816001600160a01b03167fa087657e3d85162090ffd700fbfdf5070d816f63aa5da00063f6ffd369c8a6db826040516104cf91815260200190565b60405180910390a25050565b60008381526004602081905260408220908101546005820154841561050b5761050486836117ae565b9150610518565b61051586826117ae565b90505b600061052482846117ae565b905060006127106105366064846117c1565b61054091906117d8565b9050600061054e82846117fa565b905060008861055d578461055f565b855b905080600003610579576000975050505050505050610598565b806105848b846117c1565b61058e91906117d8565b9750505050505050505b9392505050565b6105a76110b8565b600081815260046020526040812080549091036105d65760405162461bcd60e51b81526004016103919061180d565b6006810154610100900460ff166106255760405162461bcd60e51b815260206004820152601360248201527213585c9ad95d081b9bdd081c995cdbdb1d9959606a1b6044820152606401610391565b60008281526005602090815260408083203384529091529020600281015460ff16156106855760405162461bcd60e51b815260206004820152600f60248201526e105b1c9958591e4818db185a5b5959608a1b6044820152606401610391565b6000806001600685015460ff1660028111156106a3576106a3611566565b036106b6575050805460048301546106c3565b5050600181015460058301545b600082116107045760405162461bcd60e51b815260206004820152600e60248201526d139bc81dda5b9b9a5b99c818995d60921b6044820152606401610391565b60028301805460ff1916600117905560058401546004850154600091610729916117ae565b9050600061271061073b6064846117c1565b61074591906117d8565b9050600061075382846117fa565b905060008461076287846117c1565b61076c91906117d8565b60405163a9059cbb60e01b8152336004820152602481018290529091507f00000000000000000000000000000000000000000000000000000000000000006001600160a01b03169063a9059cbb906044016020604051808303816000875af11580156107dc573d6000803e3d6000fd5b505050506040513d601f19601f82011682018060405250810190610800919061174d565b61081c5760405162461bcd60e51b81526004016103919061176a565b60405181815233908a907f5380cf6fe903b40c6d5a9e0dfbca2f3a423f0a21520b4d5947ed5169bdba946d9060200160405180910390a3505050505050505061086460018055565b50565b61086f61108b565b61087960006110e2565b565b6108836110b8565b61088f82826000611132565b61089860018055565b5050565b600460205260009081526040902080546001820180549192916108be9061183c565b80601f01602080910402602001604051908101604052809291908181526020018280546108ea9061183c565b80156109375780601f1061090c57610100808354040283529160200191610937565b820191906000526020600020905b81548152906001019060200180831161091a57829003601f168201915b505050600284015460038501546004860154600587015460069097015495969295919450925060ff808216916101008104909116906001600160a01b03620100009091041689565b6109a5604051806060016040528060008152602001600081526020016000151581525090565b5060008281526005602090815260408083206001600160a01b03851684528252918290208251606081018452815481526001820154928101929092526002015460ff161515918101919091525b92915050565b6000610a0642610e106117ae565b8211610a4c5760405162461bcd60e51b8152602060048201526015602482015274088cac2c8d8d2dcca40daeae6e840c4ca407c4062d605b1b6044820152606401610391565b600a831015610a9d5760405162461bcd60e51b815260206004820152601760248201527f5468726573686f6c64206d757374206265203e3d2031300000000000000000006044820152606401610391565b83610ade5760405162461bcd60e51b815260206004820152601160248201527010d85cdd08155493081c995c5d5a5c9959607a1b6044820152606401610391565b6002805460009182610aef83611876565b91905055905060405180610120016040528082815260200187878080601f01602080910402602001604051908101604052809392919081815260200183838082843760009201829052509385525050506020820187905260408201869052606082018190526080820181905260a090910190815260006020808301829052336040938401528482526004815291902082518155908201516001820190610b9590826118f4565b5060408201518160020155606082015181600301556080820151816004015560a0820151816005015560c08201518160060160006101000a81548160ff02191690836002811115610be857610be8611566565b021790555060e082015160069091018054610100938401516001600160a01b0316620100000262010000600160b01b031993151590940292909216610100600160b01b03199092169190911791909117905560405181907f747e87b17856feac975b1d007d7a17a5953fecf4f7b4f495bf39af6b4d5914f390610c7490899089908990899033906119b4565b60405180910390a295945050505050565b610c8d61108b565b60008281526004602052604081208054909103610cbc5760405162461bcd60e51b81526004016103919061180d565b6006810154610100900460ff1615610d105760405162461bcd60e51b815260206004820152601760248201527613585c9ad95d08185b1c9958591e481c995cdbdb1d9959604a1b6044820152606401610391565b8060030154421015610d5c5760405162461bcd60e51b815260206004820152601560248201527413585c9ad95d081b9bdd081e595d0818db1bdcd959605a1b6044820152606401610391565b6001826002811115610d7057610d70611566565b1480610d8d57506002826002811115610d8b57610d8b611566565b145b610dcb5760405162461bcd60e51b815260206004820152600f60248201526e496e76616c6964206f7574636f6d6560881b6044820152606401610391565b60068101805461010061ff001982168117835584929161ffff1916176001836002811115610dfb57610dfb611566565b0217905550600081600501548260040154610e1691906117ae565b90506000612710610e286064846117c1565b610e3291906117d8565b90508060036000828254610e4691906117ae565b92505081905550847f661ce16e44a34377fc37c19874f4b1bec6e84b072cf8d318838fe17c20c58e448584604051610e7f929190611a02565b60405180910390a25050505050565b610e966113de565b600460008381526020019081526020016000206040518061012001604052908160008201548152602001600182018054610ecf9061183c565b80601f0160208091040260200160405190810160405280929190818152602001828054610efb9061183c565b8015610f485780601f10610f1d57610100808354040283529160200191610f48565b820191906000526020600020905b815481529060010190602001808311610f2b57829003601f168201915b50505091835250506002828101546020830152600383015460408301526004830154606083015260058301546080830152600683015460a09092019160ff1690811115610f9757610f97611566565b6002811115610fa857610fa8611566565b815260069190910154610100810460ff16151560208301526201000090046001600160a01b031660409091015292915050565b610fe361108b565b6001600160a01b03811661100d57604051631e4fbdf760e01b815260006004820152602401610391565b610864816110e2565b61101e6110b8565b61088f82826001611132565b600081815260046020819052604082206005810154918101549091839161105191906117ae565b90508060000361106657506113889392505050565b80826004015461271061107991906117c1565b61108391906117d8565b949350505050565b6000546001600160a01b031633146108795760405163118cdaa760e01b8152336004820152602401610391565b6002600154036110db57604051633ee5aeb560e01b815260040160405180910390fd5b6002600155565b600080546001600160a01b038381166001600160a01b0319831681178455604051919092169283917f8be0079c531659141344cd1fd0a4f28419497f9722a3daafe3b4186f6b6457e09190a35050565b600083815260046020526040812080549091036111615760405162461bcd60e51b81526004016103919061180d565b6006810154610100900460ff16156111b55760405162461bcd60e51b815260206004820152601760248201527613585c9ad95d08185b1c9958591e481c995cdbdb1d9959604a1b6044820152606401610391565b806003015442106111f85760405162461bcd60e51b815260206004820152600d60248201526c13585c9ad95d0818db1bdcd959609a1b6044820152606401610391565b600083116112485760405162461bcd60e51b815260206004820152601760248201527f416d6f756e74206d75737420626520706f7369746976650000000000000000006044820152606401610391565b6040516323b872dd60e01b8152336004820152306024820152604481018490527f00000000000000000000000000000000000000000000000000000000000000006001600160a01b0316906323b872dd906064016020604051808303816000875af11580156112bb573d6000803e3d6000fd5b505050506040513d601f19601f820116820180604052508101906112df919061174d565b6112fb5760405162461bcd60e51b81526004016103919061176a565b811561134e578281600401600082825461131591906117ae565b90915550506000848152600560209081526040808320338452909152812080548592906113439084906117ae565b909155506113999050565b8281600501600082825461136291906117ae565b90915550506000848152600560209081526040808320338452909152812060010180548592906113939084906117ae565b90915550505b60408051831515815260208101859052339186917f4af71b021e799c62c158bd54636ca8da2fa26115a21a2dc6efe486ec104fd15f910160405180910390a350505050565b6040518061012001604052806000815260200160608152602001600081526020016000815260200160008152602001600081526020016000600281111561142757611427611566565b815260006020820181905260409091015290565b80356001600160a01b038116811461145257600080fd5b919050565b60006020828403121561146957600080fd5b6105988261143b565b801515811461086457600080fd5b60008060006060848603121561149557600080fd5b833592506020840135915060408401356114ae81611472565b809150509250925092565b6000602082840312156114cb57600080fd5b5035919050565b600080604083850312156114e557600080fd5b823591506114f56020840161143b565b90509250929050565b6000806040838503121561151157600080fd5b50508035926020909101359150565b6000815180845260005b818110156115465760208185018101518683018201520161152a565b506000602082860101526020601f19601f83011685010191505092915050565b634e487b7160e01b600052602160045260246000fd5b6003811061159a57634e487b7160e01b600052602160045260246000fd5b9052565b60006101208b83528060208401526115b88184018c611520565b9150508860408301528760608301528660808301528560a08301526115e060c083018661157c565b92151560e08201526001600160a01b039190911661010090910152979650505050505050565b6000806000806060858703121561161c57600080fd5b843567ffffffffffffffff8082111561163457600080fd5b818701915087601f83011261164857600080fd5b81358181111561165757600080fd5b88602082850101111561166957600080fd5b6020928301999098509187013596604001359550909350505050565b6000806040838503121561169857600080fd5b823591506020830135600381106116ae57600080fd5b809150509250929050565b6020815281516020820152600060208301516101208060408501526116e2610140850183611520565b91506040850151606085015260608501516080850152608085015160a085015260a085015160c085015260c085015161171e60e086018261157c565b5060e08501516101006117348187018315159052565b909501516001600160a01b031693019290925250919050565b60006020828403121561175f57600080fd5b815161059881611472565b6020808252601490820152731554d110c81d1c985b9cd9995c8819985a5b195960621b604082015260600190565b634e487b7160e01b600052601160045260246000fd5b808201808211156109f2576109f2611798565b80820281158282048414176109f2576109f2611798565b6000826117f557634e487b7160e01b600052601260045260246000fd5b500490565b818103818111156109f2576109f2611798565b60208082526015908201527413585c9ad95d08191bd95cc81b9bdd08195e1a5cdd605a1b604082015260600190565b600181811c9082168061185057607f821691505b60208210810361187057634e487b7160e01b600052602260045260246000fd5b50919050565b60006001820161188857611888611798565b5060010190565b634e487b7160e01b600052604160045260246000fd5b601f8211156118ef57600081815260208120601f850160051c810160208610156118cc5750805b601f850160051c820191505b818110156118eb578281556001016118d8565b5050505b505050565b815167ffffffffffffffff81111561190e5761190e61188f565b6119228161191c845461183c565b846118a5565b602080601f831160018114611957576000841561193f5750858301515b600019600386901b1c1916600185901b1785556118eb565b600085815260208120601f198616915b8281101561198657888601518255948401946001909101908401611967565b50858210156119a45787850151600019600388901b60f8161c191681555b5050505050600190811b01905550565b60808152846080820152848660a0830137600060a0868301810191909152602082019490945260408101929092526001600160a01b03166060820152601f909201601f191690910101919050565b60408101611a10828561157c565b826020830152939250505056fea2646970667358221220a0cf8db85a2266e62558f567f8cc508e603ef98f226fda81f5ba41cdd3f0e2cb64736f6c63430008140033",
  "linkReferences": {},
  "deployedLinkReferences": {}
}