{
  "_format": "hh-sol-artifact-1",
  "contractName": "SimplePredictionMarket",
  "sourceName": "contracts/SimplePredictionMarket.sol",
  "abi": [
    {
      "inputs": [
        {
          "internalType": "address",
          "name": "_usdc",
          "type": "address"
        }
      ],
      "stateMutability": "nonpayable",
      "type": "constructor"
    },
    {
      "inputs": [
        {
          "internalType": "address",
          "name": "owner",
          "type": "address"
        }
      ],
      "name": "OwnableInvalidOwner",
      "type": "error"
    },
    {
      "inputs": [
        {
          "internalType": "address",
          "name": "account",
          "type": "address"
        }
      ],
      "name": "OwnableUnauthorizedAccount",
      "type": "error"
    },
    {
      "inputs": [],
      "name": "ReentrancyGuardReentrantCall",
      "type": "error"
    },
    {
      "anonymous": false,
      "inputs": [
        {
          "indexed": true,
          "internalType": "uint256",
          "name": "marketId",
          "type": "uint256"
        },
        {
          "indexed": true,
          "internalType": "address",
          "name": "user",
          "type": "address"
        },
        {
          "indexed": false,
          "internalType": "bool",
          "name": "isMoon",
          "type": "bool"
        },
        {
          "indexed": false,
          "internalType": "uint256",
          "name": "amount",
          "type": "uint256"
        }
      ],
      "name": "BetPlaced",
      "type": "event"
    },
    {
      "anonymous": false,
      "inputs": [
        {
          "indexed": true,
          "internalType": "uint256",
          "name": "marketId",
          "type": "uint256"
        },
        {
          "indexed": false,
          "internalType": "string",
          "name": "castUrl",
          "type": "string"
        },
        {
          "indexed": false,
          "internalType": "uint256",
          "name": "threshold",
          "type": "uint256"
        },
        {
          "indexed": false,
          "internalType": "uint256",
          "name": "deadline",
          "type": "uint256"
        },
        {
          "indexed": false,
          "internalType": "address",
          "name": "creator",
          "type": "address"
        }
      ],
      "name": "MarketCreated",
      "type": "event"
    },
    {
      "anonymous": false,
      "inputs": [
        {
          "indexed": true,
          "internalType": "uint256",
          "name": "marketId",
          "type": "uint256"
        },
        {
          "indexed": false,
          "internalType": "enum SimplePredictionMarket.Outcome",
          "name": "outcome",
          "type": "uint8"
        },
        {
          "indexed": false,
          "internalType": "uint256",
          "name": "totalPool",
          "type": "uint256"
        }
      ],
      "name": "MarketResolved",
      "type": "event"
    },
    {
      "anonymous": false,
      "inputs": [
        {
          "indexed": true,
          "internalType": "address",
          "name": "previousOwner",
          "type": "address"
        },
        {
          "indexed": true,
          "internalType": "address",
          "name": "newOwner",
          "type": "address"
        }
      ],
      "name": "OwnershipTransferred",
      "type": "event"
    },
    {
      "anonymous": false,
      "inputs": [
        {
          "indexed": true,
          "internalType": "address",
          "name": "to",
          "type": "address"
        },
        {
          "indexed": false,
          "internalType": "uint256",
          "name": "amount",
          "type": "uint256"
        }
      ],
      "name": "ProtocolFeesWithdrawn",
      "type": "event"
    },
    {
      "anonymous": false,
      "inputs": [
        {
          "indexed": true,
          "internalType": "uint256",
          "name": "marketId",
          "type": "uint256"
        },
        {
          "indexed": true,
          "internalType": "address",
          "name": "user",
          "type": "address"
        },
        {
          "indexed": false,
          "internalType": "uint256",
          "name": "amount",
          "type": "uint256"
        }
      ],
      "name": "WinningsClaimed",
      "type": "event"
    },
    {
      "inputs": [],
      "name": "FEE_DENOMINATOR",
      "outputs": [
        {
          "internalType": "uint256",
          "name": "",
          "type": "uint256"
        }
      ],
      "stateMutability": "view",
      "type": "function"
    },
    {
      "inputs": [],
      "name": "PROTOCOL_FEE",
      "outputs": [
        {
          "internalType": "uint256",
          "name": "",
          "type": "uint256"
        }
      ],
      "stateMutability": "view",
      "type": "function"
    },
    {
      "inputs": [],
      "name": "USDC",
      "outputs": [
        {
          "internalType": "contract IERC20",
          "name": "",
          "type": "address"
        }
      ],
      "stateMutability": "view",
      "type": "function"
    },
    {
      "inputs": [
        {
          "internalType": "uint256",
          "name": "marketId",
          "type": "uint256"
        },
        {
          "internalType": "uint256",
          "name": "amount",
          "type": "uint256"
        }
      ],
      "name": "betDoom",
      "outputs": [],
      "stateMutability": "nonpayable",
      "type": "function"
    },
    {
      "inputs": [
        {
          "internalType": "uint256",
          "name": "marketId",
          "type": "uint256"
        },
        {
          "internalType": "uint256",
          "name": "amount",
          "type": "uint256"
        }
      ],
      "name": "betMoon",
      "outputs": [],
      "stateMutability": "nonpayable",
      "type": "function"
    },
    {
      "inputs": [
        {
          "internalType": "uint256",
          "name": "marketId",
          "type": "uint256"
        },
        {
          "internalType": "uint256",
          "name": "amount",
          "type": "uint256"
        },
        {
          "internalType": "bool",
          "name": "isMoon",
          "type": "bool"
        }
      ],
      "name": "calculatePotentialWinnings",
      "outputs": [
        {
          "internalType": "uint256",
          "name": "potentialWinnings",
          "type": "uint256"
        }
      ],
      "stateMutability": "view",
      "type": "function"
    },
    {
      "inputs": [
        {
          "internalType": "uint256",
          "name": "marketId",
          "type": "uint256"
        }
      ],
      "name": "claimWinnings",
      "outputs": [],
      "stateMutability": "nonpayable",
      "type": "function"
    },
    {
      "inputs": [
        {
          "internalType": "string",
          "name": "castUrl",
          "type": "string"
        },
        {
          "internalType": "uint256",
          "name": "threshold",
          "type": "uint256"
        },
        {
          "internalType": "uint256",
          "name": "deadline",
          "type": "uint256"
        }
      ],
      "name": "createMarket",
      "outputs": [
        {
          "internalType": "uint256",
          "name": "",
          "type": "uint256"
        }
      ],
      "stateMutability": "nonpayable",
      "type": "function"
    },
    {
      "inputs": [
        {
          "internalType": "uint256",
          "name": "marketId",
          "type": "uint256"
        }
      ],
      "name": "getMarket",
      "outputs": [
        {
          "components": [
            {
              "internalType": "uint256",
              "name": "id",
              "type": "uint256"
            },
            {
              "internalType": "string",
              "name": "castUrl",
              "type": "string"
            },
            {
              "internalType": "uint256",
              "name": "threshold",
              "type": "uint256"
            },
            {
              "internalType": "uint256",
              "name": "deadline",
              "type": "uint256"
            },
            {
              "internalType": "uint256",
              "name": "totalMoonBets",
              "type": "uint256"
            },
            {
              "internalType": "uint256",
              "name": "totalDoomBets",
              "type": "uint256"
            },
            {
              "internalType": "enum SimplePredictionMarket.Outcome",
              "name": "outcome",
              "type": "uint8"
            },
            {
              "internalType": "bool",
              "name": "resolved",
              "type": "bool"
            },
            {
              "internalType": "address",
              "name": "creator",
              "type": "address"
            }
          ],
          "internalType": "struct SimplePredictionMarket.Market",
          "name": "",
          "type": "tuple"
        }
      ],
      "stateMutability": "view",
      "type": "function"
    },
    {
      "inputs": [
        {
          "internalType": "uint256",
          "name": "marketId",
          "type": "uint256"
        }
      ],
      "name": "getMoonOdds",
      "outputs": [
        {
          "internalType": "uint256",
          "name": "moonOdds",
          "type": "uint256"
        }
      ],
      "stateMutability": "view",
      "type": "function"
    },
    {
      "inputs": [
        {
          "internalType": "uint256",
          "name": "marketId",
          "type": "uint256"
        },
        {
          "internalType": "address",
          "name": "user",
          "type": "address"
        }
      ],
      "name": "getUserBet",
      "outputs": [
        {
          "components": [
            {
              "internalType": "uint256",
              "name": "moonAmount",
              "type": "uint256"
            },
            {
              "internalType": "uint256",
              "name": "doomAmount",
              "type": "uint256"
            },
            {
              "internalType": "bool",
              "name": "claimed",
              "type": "bool"
            }
          ],
          "internalType": "struct SimplePredictionMarket.UserBet",
          "name": "",
          "type": "tuple"
        }
      ],
      "stateMutability": "view",
      "type": "function"
    },
    {
      "inputs": [
        {
          "internalType": "uint256",
          "name": "",
          "type": "uint256"
        }
      ],
      "name": "markets",
      "outputs": [
        {
          "internalType": "uint256",
          "name": "id",
          "type": "uint256"
        },
        {
          "internalType": "string",
          "name": "castUrl",
          "type": "string"
        },
        {
          "internalType": "uint256",
          "name": "threshold",
          "type": "uint256"
        },
        {
          "internalType": "uint256",
          "name": "deadline",
          "type": "uint256"
        },
        {
          "internalType": "uint256",
          "name": "totalMoonBets",
          "type": "uint256"
        },
        {
          "internalType": "uint256",
          "name": "totalDoomBets",
          "type": "uint256"
        },
        {
          "internalType": "enum SimplePredictionMarket.Outcome",
          "name": "outcome",
          "type": "uint8"
        },
        {
          "internalType": "bool",
          "name": "resolved",
          "type": "bool"
        },
        {
          "internalType": "address",
          "name": "creator",
          "type": "address"
        }
      ],
      "stateMutability": "view",
      "type": "function"
    },
    {
      "inputs": [],
      "name": "nextMarketId",
      "outputs": [
        {
          "internalType": "uint256",
          "name": "",
          "type": "uint256"
        }
      ],
      "stateMutability": "view",
      "type": "function"
    },
    {
      "inputs": [],
      "name": "owner",
      "outputs": [
        {
          "internalType": "address",
          "name": "",
          "type": "address"
        }
      ],
      "stateMutability": "view",
      "type": "function"
    },
    {
      "inputs": [],
      "name": "renounceOwnership",
      "outputs": [],
      "stateMutability": "nonpayable",
      "type": "function"
    },
    {
      "inputs": [
        {
          "internalType": "uint256",
          "name": "marketId",
          "type": "uint256"
        },
        {
          "internalType": "enum SimplePredictionMarket.Outcome",
          "name": "outcome",
          "type": "uint8"
        }
      ],
      "name": "resolveMarket",
      "outputs": [],
      "stateMutability": "nonpayable",
      "type": "function"
    },
    {
      "inputs": [],
      "name": "totalProtocolFees",
      "outputs": [
        {
          "internalType": "uint256",
          "name": "",
          "type": "uint256"
        }
      ],
      "stateMutability": "view",
      "type": "function"
    },
    {
      "inputs": [
        {
          "internalType": "address",
          "name": "newOwner",
          "type": "address"
        }
      ],
      "name": "transferOwnership",
      "outputs": [],
      "stateMutability": "nonpayable",
      "type": "function"
    },
    {
      "inputs": [
        {
          "internalType": "uint256",
          "name": "",
          "type": "uint256"
        },
        {
          "internalType": "address",
          "name": "",
          "type": "address"
        }
      ],
      "name": "userBets",
      "outputs": [
        {
          "internalType": "uint256",
          "name": "moonAmount",
          "type": "uint256"
        },
        {
          "internalType": "uint256",
          "name": "doomAmount",
          "type": "uint256"
        },
        {
          "internalType": "bool",
          "name": "claimed",
          "type": "bool"
        }
      ],
      "stateMutability": "view",
      "type": "function"
    },
    {
      "inputs": [
        {
          "internalType": "address",
          "name": "to",
          "type": "address"
        }
      ],
      "name": "withdrawProtocolFees",
      "outputs": [],
      "stateMutability": "nonpayable",
      "type": "function"
    }
  ],
  "bytecode": "0x60a060405260016002553480156200001657600080fd5b5060405162001be538038062001be583398101604081905262000039916200012b565b33806200006157604051631e4fbdf760e01b8152600060048201526024015b60405180910390fd5b6200006c81620000db565b50600180556001600160a01b038116620000c95760405162461bcd60e51b815260206004820152601460248201527f496e76616c696420555344432061646472657373000000000000000000000000604482015260640162000058565b6001600160a01b03166080526200015d565b600080546001600160a01b038381166001600160a01b0319831681178455604051919092169283917f8be0079c531659141344cd1fd0a4f28419497f9722a3daafe3b4186f6b6457e09190a35050565b6000602082840312156200013e57600080fd5b81516001600160a01b03811681146200015657600080fd5b9392505050565b608051611a576200018e6000396000818161020a0152818161040b0152818161078b015261126e0152611a576000f3fe608060405234801561001057600080fd5b506004361061012c5760003560e01c8063b1283e77116100ad578063eb44fdd311610071578063eb44fdd3146102e3578063f2fde38b14610303578063f526e39a14610316578063f74916081461031f578063f7abda791461033257600080fd5b8063b1283e7714610255578063c03fb87c1461027d578063cfa51b16146102b4578063d73792a9146102c7578063df55406e146102d057600080fd5b8063715018a6116100f4578063715018a6146101905780637d06a8e11461019857806388611385146101f257806389a30271146102055780638da5cb5b1461024457600080fd5b80630b4501fd146101315780632d80caa51461014c578063406ef2ef146101615780635f2716331461016a578063677bd9ff1461017d575b600080fd5b610139606481565b6040519081526020015b60405180910390f35b61015f61015a36600461145b565b610345565b005b61013960025481565b610139610178366004611484565b6104db565b61015f61018b3660046114bd565b61059f565b61015f610867565b6101d56101a63660046114d6565b600560209081526000928352604080842090915290825290208054600182015460029092015490919060ff1683565b604080519384526020840192909252151590820152606001610143565b61015f610200366004611502565b61087b565b61022c7f000000000000000000000000000000000000000000000000000000000000000081565b6040516001600160a01b039091168152602001610143565b6000546001600160a01b031661022c565b6102686102633660046114bd565b61089c565b604051610143999897969594939291906115a2565b61029061028b3660046114d6565b61097f565b60408051825181526020808401519082015291810151151590820152606001610143565b6101396102c236600461160a565b6109f8565b61013961271081565b61015f6102de366004611689565b610c89565b6102f66102f13660046114bd565b610e92565b60405161014391906116bd565b61015f61031136600461145b565b610fdf565b61013960035481565b61015f61032d366004611502565b61101a565b6101396103403660046114bd565b61102e565b61034d61108f565b6001600160a01b03811661039a5760405162461bcd60e51b815260206004820152600f60248201526e496e76616c6964206164647265737360881b60448201526064015b60405180910390fd5b600354806103e05760405162461bcd60e51b81526020600482015260136024820152724e6f206665657320746f20776974686472617760681b6044820152606401610391565b600060035560405163a9059cbb60e01b81526001600160a01b038381166004830152602482018390527f0000000000000000000000000000000000000000000000000000000000000000169063a9059cbb906044016020604051808303816000875af1158015610454573d6000803e3d6000fd5b505050506040513d601f19601f820116820180604052508101906104789190611751565b6104945760405162461bcd60e51b81526004016103919061176e565b816001600160a01b03167fa087657e3d85162090ffd700fbfdf5070d816f63aa5da00063f6ffd369c8a6db826040516104cf91815260200190565b60405180910390a25050565b60008381526004602081905260408220908101546005820154841561050b5761050486836117b2565b9150610518565b61051586826117b2565b90505b600061052482846117b2565b905060006127106105366064846117c5565b61054091906117dc565b9050600061054e82846117fe565b905060008861055d578461055f565b855b905080600003610579576000975050505050505050610598565b806105848b846117c5565b61058e91906117dc565b9750505050505050505b9392505050565b6105a76110bc565b600081815260046020526040812080549091036105d65760405162461bcd60e51b815260040161039190611811565b6006810154610100900460ff166106255760405162461bcd60e51b815260206004820152601360248201527213585c9ad95d081b9bdd081c995cdbdb1d9959606a1b6044820152606401610391565b60008281526005602090815260408083203384529091529020600281015460ff16156106855760405162461bcd60e51b815260206004820152600f60248201526e105b1c9958591e4818db185a5b5959608a1b6044820152606401610391565b6000806001600685015460ff1660028111156106a3576106a361156a565b036106b6575050805460048301546106c3565b5050600181015460058301545b600082116107045760405162461bcd60e51b815260206004820152600e60248201526d139bc81dda5b9b9a5b99c818995d60921b6044820152606401610391565b60028301805460ff1916600117905560058401546004850154600091610729916117b2565b9050600061271061073b6064846117c5565b61074591906117dc565b9050600061075382846117fe565b905060008461076287846117c5565b61076c91906117dc565b60405163a9059cbb60e01b8152336004820152602481018290529091507f00000000000000000000000000000000000000000000000000000000000000006001600160a01b03169063a9059cbb906044016020604051808303816000875af11580156107dc573d6000803e3d6000fd5b505050506040513d601f19601f820116820180604052508101906108009190611751565b61081c5760405162461bcd60e51b81526004016103919061176e565b60405181815233908a907f5380cf6fe903b40c6d5a9e0dfbca2f3a423f0a21520b4d5947ed5169bdba946d9060200160405180910390a3505050505050505061086460018055565b50565b61086f61108f565b61087960006110e6565b565b6108836110bc565b61088f82826000611136565b61089860018055565b5050565b600460205260009081526040902080546001820180549192916108be90611840565b80601f01602080910402602001604051908101604052809291908181526020018280546108ea90611840565b80156109375780601f1061090c57610100808354040283529160200191610937565b820191906000526020600020905b81548152906001019060200180831161091a57829003601f168201915b505050600284015460038501546004860154600587015460069097015495969295919450925060ff808216916101008104909116906001600160a01b03620100009091041689565b6109a5604051806060016040528060008152602001600081526020016000151581525090565b5060008281526005602090815260408083206001600160a01b03851684528252918290208251606081018452815481526001820154928101929092526002015460ff161515918101919091525b92915050565b6000610a0261108f565b428211610a515760405162461bcd60e51b815260206004820152601a60248201527f446561646c696e65206d75737420626520696e206675747572650000000000006044820152606401610391565b60008311610aa15760405162461bcd60e51b815260206004820152601a60248201527f5468726573686f6c64206d75737420626520706f7369746976650000000000006044820152606401610391565b83610ae25760405162461bcd60e51b815260206004820152601160248201527010d85cdd08155493081c995c5d5a5c9959607a1b6044820152606401610391565b6002805460009182610af38361187a565b91905055905060405180610120016040528082815260200187878080601f01602080910402602001604051908101604052809392919081815260200183838082843760009201829052509385525050506020820187905260408201869052606082018190526080820181905260a090910190815260006020808301829052336040938401528482526004815291902082518155908201516001820190610b9990826118f8565b5060408201518160020155606082015181600301556080820151816004015560a0820151816005015560c08201518160060160006101000a81548160ff02191690836002811115610bec57610bec61156a565b021790555060e082015160069091018054610100938401516001600160a01b0316620100000262010000600160b01b031993151590940292909216610100600160b01b03199092169190911791909117905560405181907f747e87b17856feac975b1d007d7a17a5953fecf4f7b4f495bf39af6b4d5914f390610c7890899089908990899033906119b8565b60405180910390a295945050505050565b610c9161108f565b60008281526004602052604081208054909103610cc05760405162461bcd60e51b815260040161039190611811565b6006810154610100900460ff1615610d145760405162461bcd60e51b815260206004820152601760248201527613585c9ad95d08185b1c9958591e481c995cdbdb1d9959604a1b6044820152606401610391565b8060030154421015610d605760405162461bcd60e51b815260206004820152601560248201527413585c9ad95d081b9bdd081e595d0818db1bdcd959605a1b6044820152606401610391565b6001826002811115610d7457610d7461156a565b1480610d9157506002826002811115610d8f57610d8f61156a565b145b610dcf5760405162461bcd60e51b815260206004820152600f60248201526e496e76616c6964206f7574636f6d6560881b6044820152606401610391565b60068101805461010061ff001982168117835584929161ffff1916176001836002811115610dff57610dff61156a565b0217905550600081600501548260040154610e1a91906117b2565b90506000612710610e2c6064846117c5565b610e3691906117dc565b90508060036000828254610e4a91906117b2565b92505081905550847f661ce16e44a34377fc37c19874f4b1bec6e84b072cf8d318838fe17c20c58e448584604051610e83929190611a06565b60405180910390a25050505050565b610e9a6113e2565b600460008381526020019081526020016000206040518061012001604052908160008201548152602001600182018054610ed390611840565b80601f0160208091040260200160405190810160405280929190818152602001828054610eff90611840565b8015610f4c5780601f10610f2157610100808354040283529160200191610f4c565b820191906000526020600020905b815481529060010190602001808311610f2f57829003601f168201915b50505091835250506002828101546020830152600383015460408301526004830154606083015260058301546080830152600683015460a09092019160ff1690811115610f9b57610f9b61156a565b6002811115610fac57610fac61156a565b815260069190910154610100810460ff16151560208301526201000090046001600160a01b031660409091015292915050565b610fe761108f565b6001600160a01b03811661101157604051631e4fbdf760e01b815260006004820152602401610391565b610864816110e6565b6110226110bc565b61088f82826001611136565b600081815260046020819052604082206005810154918101549091839161105591906117b2565b90508060000361106a57506113889392505050565b80826004015461271061107d91906117c5565b61108791906117dc565b949350505050565b6000546001600160a01b031633146108795760405163118cdaa760e01b8152336004820152602401610391565b6002600154036110df57604051633ee5aeb560e01b815260040160405180910390fd5b6002600155565b600080546001600160a01b038381166001600160a01b0319831681178455604051919092169283917f8be0079c531659141344cd1fd0a4f28419497f9722a3daafe3b4186f6b6457e09190a35050565b600083815260046020526040812080549091036111655760405162461bcd60e51b815260040161039190611811565b6006810154610100900460ff16156111b95760405162461bcd60e51b815260206004820152601760248201527613585c9ad95d08185b1c9958591e481c995cdbdb1d9959604a1b6044820152606401610391565b806003015442106111fc5760405162461bcd60e51b815260206004820152600d60248201526c13585c9ad95d0818db1bdcd959609a1b6044820152606401610391565b6000831161124c5760405162461bcd60e51b815260206004820152601760248201527f416d6f756e74206d75737420626520706f7369746976650000000000000000006044820152606401610391565b6040516323b872dd60e01b8152336004820152306024820152604481018490527f00000000000000000000000000000000000000000000000000000000000000006001600160a01b0316906323b872dd906064016020604051808303816000875af11580156112bf573d6000803e3d6000fd5b505050506040513d601f19601f820116820180604052508101906112e39190611751565b6112ff5760405162461bcd60e51b81526004016103919061176e565b8115611352578281600401600082825461131991906117b2565b90915550506000848152600560209081526040808320338452909152812080548592906113479084906117b2565b9091555061139d9050565b8281600501600082825461136691906117b2565b90915550506000848152600560209081526040808320338452909152812060010180548592906113979084906117b2565b90915550505b60408051831515815260208101859052339186917f4af71b021e799c62c158bd54636ca8da2fa26115a21a2dc6efe486ec104fd15f910160405180910390a350505050565b6040518061012001604052806000815260200160608152602001600081526020016000815260200160008152602001600081526020016000600281111561142b5761142b61156a565b815260006020820181905260409091015290565b80356001600160a01b038116811461145657600080fd5b919050565b60006020828403121561146d57600080fd5b6105988261143f565b801515811461086457600080fd5b60008060006060848603121561149957600080fd5b833592506020840135915060408401356114b281611476565b809150509250925092565b6000602082840312156114cf57600080fd5b5035919050565b600080604083850312156114e957600080fd5b823591506114f96020840161143f565b90509250929050565b6000806040838503121561151557600080fd5b50508035926020909101359150565b6000815180845260005b8181101561154a5760208185018101518683018201520161152e565b506000602082860101526020601f19601f83011685010191505092915050565b634e487b7160e01b600052602160045260246000fd5b6003811061159e57634e487b7160e01b600052602160045260246000fd5b9052565b60006101208b83528060208401526115bc8184018c611524565b9150508860408301528760608301528660808301528560a08301526115e460c0830186611580565b92151560e08201526001600160a01b039190911661010090910152979650505050505050565b6000806000806060858703121561162057600080fd5b843567ffffffffffffffff8082111561163857600080fd5b818701915087601f83011261164c57600080fd5b81358181111561165b57600080fd5b88602082850101111561166d57600080fd5b6020928301999098509187013596604001359550909350505050565b6000806040838503121561169c57600080fd5b823591506020830135600381106116b257600080fd5b809150509250929050565b6020815281516020820152600060208301516101208060408501526116e6610140850183611524565b91506040850151606085015260608501516080850152608085015160a085015260a085015160c085015260c085015161172260e0860182611580565b5060e08501516101006117388187018315159052565b909501516001600160a01b031693019290925250919050565b60006020828403121561176357600080fd5b815161059881611476565b6020808252601490820152731554d110c81d1c985b9cd9995c8819985a5b195960621b604082015260600190565b634e487b7160e01b600052601160045260246000fd5b808201808211156109f2576109f261179c565b80820281158282048414176109f2576109f261179c565b6000826117f957634e487b7160e01b600052601260045260246000fd5b500490565b818103818111156109f2576109f261179c565b60208082526015908201527413585c9ad95d08191bd95cc81b9bdd08195e1a5cdd605a1b604082015260600190565b600181811c9082168061185457607f821691505b60208210810361187457634e487b7160e01b600052602260045260246000fd5b50919050565b60006001820161188c5761188c61179c565b5060010190565b634e487b7160e01b600052604160045260246000fd5b601f8211156118f357600081815260208120601f850160051c810160208610156118d05750805b601f850160051c820191505b818110156118ef578281556001016118dc565b5050505b505050565b815167ffffffffffffffff81111561191257611912611893565b611926816119208454611840565b846118a9565b602080601f83116001811461195b57600084156119435750858301515b600019600386901b1c1916600185901b1785556118ef565b600085815260208120601f198616915b8281101561198a5788860151825594840194600190910190840161196b565b50858210156119a85787850151600019600388901b60f8161c191681555b5050505050600190811b01905550565b60808152846080820152848660a0830137600060a0868301810191909152602082019490945260408101929092526001600160a01b03166060820152601f909201601f191690910101919050565b60408101611a148285611580565b826020830152939250505056fea26469706673582212207453e1f3cb4f18f5c6f0093f84be21fcf423b9c83de86cea1dbfab19e1d0e18064736f6c63430008140033",
  "linkReferences": {},
  "deployedLinkReferences": {}
}