{
  "_format": "hh-sol-artifact-1",
  "contractName": "SimplePredictionMarket",
  "sourceName": "contracts/SimplePredictionMarket.sol",
  "abi": [
    {
      "inputs": [
        {
          "internalType": "address",
          "name": "_usdc",
          "type": "address"
        }
      ],
      "stateMutability": "nonpayable",
      "type": "constructor"
    },
    {
      "inputs": [
        {
          "internalType": "address",
          "name": "owner",
          "type": "address"
        }
      ],
      "name": "OwnableInvalidOwner",
      "type": "error"
    },
    {
      "inputs": [
        {
          "internalType": "address",
          "name": "account",
          "type": "address"
        }
      ],
      "name": "OwnableUnauthorizedAccount",
      "type": "error"
    },
    {
      "inputs": [],
      "name": "ReentrancyGuardReentrantCall",
      "type": "error"
    },
    {
      "anonymous": false,
      "inputs": [
        {
          "indexed": true,
          "internalType": "uint256",
          "name": "marketId",
          "type": "uint256"
        },
        {
          "indexed": true,
          "internalType": "address",
          "name": "user",
          "type": "address"
        },
        {
          "indexed": false,
          "internalType": "bool",
          "name": "isMoon",
          "type": "bool"
        },
        {
          "indexed": false,
          "internalType": "uint256",
          "name": "amount",
          "type": "uint256"
        }
      ],
      "name": "BetPlaced",
      "type": "event"
    },
    {
      "anonymous": false,
      "inputs": [
        {
          "indexed": true,
          "internalType": "uint256",
          "name": "marketId",
          "type": "uint256"
        },
        {
          "indexed": false,
          "internalType": "string",
          "name": "castUrl",
          "type": "string"
        },
        {
          "indexed": false,
          "internalType": "uint256",
          "name": "threshold",
          "type": "uint256"
        },
        {
          "indexed": false,
          "internalType": "uint256",
          "name": "deadline",
          "type": "uint256"
        },
        {
          "indexed": false,
          "internalType": "address",
          "name": "creator",
          "type": "address"
        }
      ],
      "name": "MarketCreated",
      "type": "event"
    },
    {
      "anonymous": false,
      "inputs": [
        {
          "indexed": true,
          "internalType": "uint256",
          "name": "marketId",
          "type": "uint256"
        },
        {
          "indexed": false,
          "internalType": "enum SimplePredictionMarket.Outcome",
          "name": "outcome",
          "type": "uint8"
        },
        {
          "indexed": false,
          "internalType": "uint256",
          "name": "totalPool",
          "type": "uint256"
        }
      ],
      "name": "MarketResolved",
      "type": "event"
    },
    {
      "anonymous": false,
      "inputs": [
        {
          "indexed": true,
          "internalType": "address",
          "name": "previousOwner",
          "type": "address"
        },
        {
          "indexed": true,
          "internalType": "address",
          "name": "newOwner",
          "type": "address"
        }
      ],
      "name": "OwnershipTransferred",
      "type": "event"
    },
    {
      "anonymous": false,
      "inputs": [
        {
          "indexed": true,
          "internalType": "address",
          "name": "to",
          "type": "address"
        },
        {
          "indexed": false,
          "internalType": "uint256",
          "name": "amount",
          "type": "uint256"
        }
      ],
      "name": "ProtocolFeesWithdrawn",
      "type": "event"
    },
    {
      "anonymous": false,
      "inputs": [
        {
          "indexed": true,
          "internalType": "uint256",
          "name": "marketId",
          "type": "uint256"
        },
        {
          "indexed": true,
          "internalType": "address",
          "name": "user",
          "type": "address"
        },
        {
          "indexed": false,
          "internalType": "uint256",
          "name": "amount",
          "type": "uint256"
        }
      ],
      "name": "WinningsClaimed",
      "type": "event"
    },
    {
      "inputs": [],
      "name": "FEE_DENOMINATOR",
      "outputs": [
        {
          "internalType": "uint256",
          "name": "",
          "type": "uint256"
        }
      ],
      "stateMutability": "view",
      "type": "function"
    },
    {
      "inputs": [],
      "name": "PROTOCOL_FEE",
      "outputs": [
        {
          "internalType": "uint256",
          "name": "",
          "type": "uint256"
        }
      ],
      "stateMutability": "view",
      "type": "function"
    },
    {
      "inputs": [],
      "name": "USDC",
      "outputs": [
        {
          "internalType": "contract IERC20",
          "name": "",
          "type": "address"
        }
      ],
      "stateMutability": "view",
      "type": "function"
    },
    {
      "inputs": [
        {
          "internalType": "uint256",
          "name": "marketId",
          "type": "uint256"
        },
        {
          "internalType": "uint256",
          "name": "amount",
          "type": "uint256"
        }
      ],
      "name": "betDoom",
      "outputs": [],
      "stateMutability": "nonpayable",
      "type": "function"
    },
    {
      "inputs": [
        {
          "internalType": "uint256",
          "name": "marketId",
          "type": "uint256"
        },
        {
          "internalType": "uint256",
          "name": "amount",
          "type": "uint256"
        }
      ],
      "name": "betMoon",
      "outputs": [],
      "stateMutability": "nonpayable",
      "type": "function"
    },
    {
      "inputs": [
        {
          "internalType": "uint256",
          "name": "marketId",
          "type": "uint256"
        },
        {
          "internalType": "uint256",
          "name": "amount",
          "type": "uint256"
        },
        {
          "internalType": "bool",
          "name": "isMoon",
          "type": "bool"
        }
      ],
      "name": "calculatePotentialWinnings",
      "outputs": [
        {
          "internalType": "uint256",
          "name": "potentialWinnings",
          "type": "uint256"
        }
      ],
      "stateMutability": "view",
      "type": "function"
    },
    {
      "inputs": [
        {
          "internalType": "uint256",
          "name": "marketId",
          "type": "uint256"
        }
      ],
      "name": "cancelMarket",
      "outputs": [],
      "stateMutability": "nonpayable",
      "type": "function"
    },
    {
      "inputs": [
        {
          "internalType": "uint256",
          "name": "marketId",
          "type": "uint256"
        }
      ],
      "name": "claimWinnings",
      "outputs": [],
      "stateMutability": "nonpayable",
      "type": "function"
    },
    {
      "inputs": [
        {
          "internalType": "string",
          "name": "castUrl",
          "type": "string"
        },
        {
          "internalType": "uint256",
          "name": "threshold",
          "type": "uint256"
        },
        {
          "internalType": "uint256",
          "name": "deadline",
          "type": "uint256"
        }
      ],
      "name": "createMarket",
      "outputs": [
        {
          "internalType": "uint256",
          "name": "",
          "type": "uint256"
        }
      ],
      "stateMutability": "nonpayable",
      "type": "function"
    },
    {
      "inputs": [
        {
          "internalType": "uint256",
          "name": "marketId",
          "type": "uint256"
        }
      ],
      "name": "getMarket",
      "outputs": [
        {
          "components": [
            {
              "internalType": "uint256",
              "name": "id",
              "type": "uint256"
            },
            {
              "internalType": "string",
              "name": "castUrl",
              "type": "string"
            },
            {
              "internalType": "uint256",
              "name": "threshold",
              "type": "uint256"
            },
            {
              "internalType": "uint256",
              "name": "deadline",
              "type": "uint256"
            },
            {
              "internalType": "uint256",
              "name": "totalMoonBets",
              "type": "uint256"
            },
            {
              "internalType": "uint256",
              "name": "totalDoomBets",
              "type": "uint256"
            },
            {
              "internalType": "enum SimplePredictionMarket.Outcome",
              "name": "outcome",
              "type": "uint8"
            },
            {
              "internalType": "bool",
              "name": "resolved",
              "type": "bool"
            },
            {
              "internalType": "address",
              "name": "creator",
              "type": "address"
            }
          ],
          "internalType": "struct SimplePredictionMarket.Market",
          "name": "",
          "type": "tuple"
        }
      ],
      "stateMutability": "view",
      "type": "function"
    },
    {
      "inputs": [
        {
          "internalType": "uint256",
          "name": "marketId",
          "type": "uint256"
        }
      ],
      "name": "getMoonOdds",
      "outputs": [
        {
          "internalType": "uint256",
          "name": "moonOdds",
          "type": "uint256"
        }
      ],
      "stateMutability": "view",
      "type": "function"
    },
    {
      "inputs": [
        {
          "internalType": "uint256",
          "name": "marketId",
          "type": "uint256"
        },
        {
          "internalType": "address",
          "name": "user",
          "type": "address"
        }
      ],
      "name": "getUserBet",
      "outputs": [
        {
          "components": [
            {
              "internalType": "uint256",
              "name": "moonAmount",
              "type": "uint256"
            },
            {
              "internalType": "uint256",
              "name": "doomAmount",
              "type": "uint256"
            },
            {
              "internalType": "bool",
              "name": "claimed",
              "type": "bool"
            }
          ],
          "internalType": "struct SimplePredictionMarket.UserBet",
          "name": "",
          "type": "tuple"
        }
      ],
      "stateMutability": "view",
      "type": "function"
    },
    {
      "inputs": [
        {
          "internalType": "uint256",
          "name": "",
          "type": "uint256"
        }
      ],
      "name": "markets",
      "outputs": [
        {
          "internalType": "uint256",
          "name": "id",
          "type": "uint256"
        },
        {
          "internalType": "string",
          "name": "castUrl",
          "type": "string"
        },
        {
          "internalType": "uint256",
          "name": "threshold",
          "type": "uint256"
        },
        {
          "internalType": "uint256",
          "name": "deadline",
          "type": "uint256"
        },
        {
          "internalType": "uint256",
          "name": "totalMoonBets",
          "type": "uint256"
        },
        {
          "internalType": "uint256",
          "name": "totalDoomBets",
          "type": "uint256"
        },
        {
          "internalType": "enum SimplePredictionMarket.Outcome",
          "name": "outcome",
          "type": "uint8"
        },
        {
          "internalType": "bool",
          "name": "resolved",
          "type": "bool"
        },
        {
          "internalType": "address",
          "name": "creator",
          "type": "address"
        }
      ],
      "stateMutability": "view",
      "type": "function"
    },
    {
      "inputs": [],
      "name": "nextMarketId",
      "outputs": [
        {
          "internalType": "uint256",
          "name": "",
          "type": "uint256"
        }
      ],
      "stateMutability": "view",
      "type": "function"
    },
    {
      "inputs": [],
      "name": "owner",
      "outputs": [
        {
          "internalType": "address",
          "name": "",
          "type": "address"
        }
      ],
      "stateMutability": "view",
      "type": "function"
    },
    {
      "inputs": [],
      "name": "renounceOwnership",
      "outputs": [],
      "stateMutability": "nonpayable",
      "type": "function"
    },
    {
      "inputs": [
        {
          "internalType": "uint256",
          "name": "marketId",
          "type": "uint256"
        },
        {
          "internalType": "enum SimplePredictionMarket.Outcome",
          "name": "outcome",
          "type": "uint8"
        }
      ],
      "name": "resolveMarket",
      "outputs": [],
      "stateMutability": "nonpayable",
      "type": "function"
    },
    {
      "inputs": [],
      "name": "totalProtocolFees",
      "outputs": [
        {
          "internalType": "uint256",
          "name": "",
          "type": "uint256"
        }
      ],
      "stateMutability": "view",
      "type": "function"
    },
    {
      "inputs": [
        {
          "internalType": "address",
          "name": "newOwner",
          "type": "address"
        }
      ],
      "name": "transferOwnership",
      "outputs": [],
      "stateMutability": "nonpayable",
      "type": "function"
    },
    {
      "inputs": [
        {
          "internalType": "uint256",
          "name": "",
          "type": "uint256"
        },
        {
          "internalType": "address",
          "name": "",
          "type": "address"
        }
      ],
      "name": "userBets",
      "outputs": [
        {
          "internalType": "uint256",
          "name": "moonAmount",
          "type": "uint256"
        },
        {
          "internalType": "uint256",
          "name": "doomAmount",
          "type": "uint256"
        },
        {
          "internalType": "bool",
          "name": "claimed",
          "type": "bool"
        }
      ],
      "stateMutability": "view",
      "type": "function"
    },
    {
      "inputs": [
        {
          "internalType": "address",
          "name": "to",
          "type": "address"
        }
      ],
      "name": "withdrawProtocolFees",
      "outputs": [],
      "stateMutability": "nonpayable",
      "type": "function"
    }
  ],
  "bytecode": "0x60a060405260016002553480156200001657600080fd5b5060405162001d2738038062001d2783398101604081905262000039916200012b565b33806200006157604051631e4fbdf760e01b8152600060048201526024015b60405180910390fd5b6200006c81620000db565b50600180556001600160a01b038116620000c95760405162461bcd60e51b815260206004820152601460248201527f496e76616c696420555344432061646472657373000000000000000000000000604482015260640162000058565b6001600160a01b03166080526200015d565b600080546001600160a01b038381166001600160a01b0319831681178455604051919092169283917f8be0079c531659141344cd1fd0a4f28419497f9722a3daafe3b4186f6b6457e09190a35050565b6000602082840312156200013e57600080fd5b81516001600160a01b03811681146200015657600080fd5b9392505050565b608051611b996200018e60003960008181610228015281816104290152818161083101526113790152611b996000f3fe608060405234801561001057600080fd5b50600436106101375760003560e01c80638da5cb5b116100b8578063df55406e1161007c578063df55406e146102ee578063eb44fdd314610301578063f2fde38b14610321578063f526e39a14610334578063f74916081461033d578063f7abda791461035057600080fd5b80638da5cb5b14610262578063b1283e7714610273578063c03fb87c1461029b578063cfa51b16146102d2578063d73792a9146102e557600080fd5b8063715018a6116100ff578063715018a61461019b5780637c16cd9e146101a35780637d06a8e1146101b6578063886113851461021057806389a302711461022357600080fd5b80630b4501fd1461013c5780632d80caa514610157578063406ef2ef1461016c5780635f27163314610175578063677bd9ff14610188575b600080fd5b610144606481565b6040519081526020015b60405180910390f35b61016a610165366004611566565b610363565b005b61014460025481565b61014461018336600461158f565b6104f9565b61016a6101963660046115c8565b6105bd565b61016a610900565b61016a6101b13660046115c8565b610914565b6101f36101c43660046115e1565b600560209081526000928352604080842090915290825290208054600182015460029092015490919060ff1683565b60408051938452602084019290925215159082015260600161014e565b61016a61021e36600461160d565b6109de565b61024a7f000000000000000000000000000000000000000000000000000000000000000081565b6040516001600160a01b03909116815260200161014e565b6000546001600160a01b031661024a565b6102866102813660046115c8565b6109ff565b60405161014e999897969594939291906116ad565b6102ae6102a93660046115e1565b610ae2565b6040805182518152602080840151908201529181015115159082015260600161014e565b6101446102e0366004611715565b610b5b565b61014461271081565b61016a6102fc366004611794565b610de8565b61031461030f3660046115c8565b610fc7565b60405161014e91906117c8565b61016a61032f366004611566565b611114565b61014460035481565b61016a61034b36600461160d565b61114f565b61014461035e3660046115c8565b611163565b61036b6111c4565b6001600160a01b0381166103b85760405162461bcd60e51b815260206004820152600f60248201526e496e76616c6964206164647265737360881b60448201526064015b60405180910390fd5b600354806103fe5760405162461bcd60e51b81526020600482015260136024820152724e6f206665657320746f20776974686472617760681b60448201526064016103af565b600060035560405163a9059cbb60e01b81526001600160a01b038381166004830152602482018390527f0000000000000000000000000000000000000000000000000000000000000000169063a9059cbb906044016020604051808303816000875af1158015610472573d6000803e3d6000fd5b505050506040513d601f19601f82011682018060405250810190610496919061185c565b6104b25760405162461bcd60e51b81526004016103af90611879565b816001600160a01b03167fa087657e3d85162090ffd700fbfdf5070d816f63aa5da00063f6ffd369c8a6db826040516104ed91815260200190565b60405180910390a25050565b6000838152600460208190526040822090810154600582015484156105295761052286836118bd565b9150610536565b61053386826118bd565b90505b600061054282846118bd565b905060006127106105546064846118d0565b61055e91906118e7565b9050600061056c8284611909565b905060008861057b578461057d565b855b9050806000036105975760009750505050505050506105b6565b806105a28b846118d0565b6105ac91906118e7565b9750505050505050505b9392505050565b6105c56111f1565b600081815260046020526040812080549091036105f45760405162461bcd60e51b81526004016103af9061191c565b6006810154610100900460ff166106435760405162461bcd60e51b815260206004820152601360248201527213585c9ad95d081b9bdd081c995cdbdb1d9959606a1b60448201526064016103af565b60008281526005602090815260408083203384529091529020600281015460ff16156106a35760405162461bcd60e51b815260206004820152600f60248201526e105b1c9958591e4818db185a5b5959608a1b60448201526064016103af565b60006003600684015460ff1660038111156106c0576106c0611675565b036106dd57600182015482546106d691906118bd565b90506107bb565b6000806001600686015460ff1660038111156106fb576106fb611675565b0361070e5750508154600484015461071b565b5050600182015460058401545b6000821161075c5760405162461bcd60e51b815260206004820152600e60248201526d139bc81dda5b9b9a5b99c818995d60921b60448201526064016103af565b60008560050154866004015461077291906118bd565b905060006127106107846064846118d0565b61078e91906118e7565b9050600061079c8284611909565b9050836107a986836118d0565b6107b391906118e7565b955050505050505b600081116107fe5760405162461bcd60e51b815260206004820152601060248201526f4e6f7468696e6720746f20636c61696d60801b60448201526064016103af565b60028201805460ff1916600117905560405163a9059cbb60e01b8152336004820152602481018290526001600160a01b037f0000000000000000000000000000000000000000000000000000000000000000169063a9059cbb906044016020604051808303816000875af115801561087a573d6000803e3d6000fd5b505050506040513d601f19601f8201168201806040525081019061089e919061185c565b6108ba5760405162461bcd60e51b81526004016103af90611879565b604051818152339085907f5380cf6fe903b40c6d5a9e0dfbca2f3a423f0a21520b4d5947ed5169bdba946d9060200160405180910390a35050506108fd60018055565b50565b6109086111c4565b610912600061121b565b565b61091c6111c4565b6000818152600460205260408120805490910361094b5760405162461bcd60e51b81526004016103af9061191c565b6006810154610100900460ff16156109755760405162461bcd60e51b81526004016103af9061194b565b60068101805461ffff19166101031790556005810154600482015460009161099c916118bd565b9050827f661ce16e44a34377fc37c19874f4b1bec6e84b072cf8d318838fe17c20c58e446003836040516109d1929190611982565b60405180910390a2505050565b6109e66111f1565b6109f28282600061126b565b6109fb60018055565b5050565b60046020526000908152604090208054600182018054919291610a219061199d565b80601f0160208091040260200160405190810160405280929190818152602001828054610a4d9061199d565b8015610a9a5780601f10610a6f57610100808354040283529160200191610a9a565b820191906000526020600020905b815481529060010190602001808311610a7d57829003601f168201915b505050600284015460038501546004860154600587015460069097015495969295919450925060ff808216916101008104909116906001600160a01b03620100009091041689565b610b08604051806060016040528060008152602001600081526020016000151581525090565b5060008281526005602090815260408083206001600160a01b03851684528252918290208251606081018452815481526001820154928101929092526002015460ff161515918101919091525b92915050565b6000610b6942610e106118bd565b8211610baf5760405162461bcd60e51b8152602060048201526015602482015274088cac2c8d8d2dcca40daeae6e840c4ca407c4062d605b1b60448201526064016103af565b600a831015610c005760405162461bcd60e51b815260206004820152601760248201527f5468726573686f6c64206d757374206265203e3d20313000000000000000000060448201526064016103af565b83610c415760405162461bcd60e51b815260206004820152601160248201527010d85cdd08155493081c995c5d5a5c9959607a1b60448201526064016103af565b6002805460009182610c52836119d7565b91905055905060405180610120016040528082815260200187878080601f01602080910402602001604051908101604052809392919081815260200183838082843760009201829052509385525050506020820187905260408201869052606082018190526080820181905260a090910190815260006020808301829052336040938401528482526004815291902082518155908201516001820190610cf89082611a55565b5060408201518160020155606082015181600301556080820151816004015560a0820151816005015560c08201518160060160006101000a81548160ff02191690836003811115610d4b57610d4b611675565b021790555060e082015160069091018054610100938401516001600160a01b0316620100000262010000600160b01b031993151590940292909216610100600160b01b03199092169190911791909117905560405181907f747e87b17856feac975b1d007d7a17a5953fecf4f7b4f495bf39af6b4d5914f390610dd79089908990899089903390611b15565b60405180910390a295945050505050565b610df06111c4565b60008281526004602052604081208054909103610e1f5760405162461bcd60e51b81526004016103af9061191c565b6006810154610100900460ff1615610e495760405162461bcd60e51b81526004016103af9061194b565b8060030154421015610e955760405162461bcd60e51b815260206004820152601560248201527413585c9ad95d081b9bdd081e595d0818db1bdcd959605a1b60448201526064016103af565b6001826003811115610ea957610ea9611675565b1480610ec657506002826003811115610ec457610ec4611675565b145b610f045760405162461bcd60e51b815260206004820152600f60248201526e496e76616c6964206f7574636f6d6560881b60448201526064016103af565b60068101805461010061ff001982168117835584929161ffff1916176001836003811115610f3457610f34611675565b0217905550600081600501548260040154610f4f91906118bd565b90506000612710610f616064846118d0565b610f6b91906118e7565b90508060036000828254610f7f91906118bd565b92505081905550847f661ce16e44a34377fc37c19874f4b1bec6e84b072cf8d318838fe17c20c58e448584604051610fb8929190611982565b60405180910390a25050505050565b610fcf6114ed565b6004600083815260200190815260200160002060405180610120016040529081600082015481526020016001820180546110089061199d565b80601f01602080910402602001604051908101604052809291908181526020018280546110349061199d565b80156110815780601f1061105657610100808354040283529160200191611081565b820191906000526020600020905b81548152906001019060200180831161106457829003601f168201915b50505091835250506002820154602082015260038083015460408301526004830154606083015260058301546080830152600683015460a09092019160ff16908111156110d0576110d0611675565b60038111156110e1576110e1611675565b815260069190910154610100810460ff16151560208301526201000090046001600160a01b031660409091015292915050565b61111c6111c4565b6001600160a01b03811661114657604051631e4fbdf760e01b8152600060048201526024016103af565b6108fd8161121b565b6111576111f1565b6109f28282600161126b565b600081815260046020819052604082206005810154918101549091839161118a91906118bd565b90508060000361119f57506113889392505050565b8082600401546127106111b291906118d0565b6111bc91906118e7565b949350505050565b6000546001600160a01b031633146109125760405163118cdaa760e01b81523360048201526024016103af565b60026001540361121457604051633ee5aeb560e01b815260040160405180910390fd5b6002600155565b600080546001600160a01b038381166001600160a01b0319831681178455604051919092169283917f8be0079c531659141344cd1fd0a4f28419497f9722a3daafe3b4186f6b6457e09190a35050565b6000838152600460205260408120805490910361129a5760405162461bcd60e51b81526004016103af9061191c565b6006810154610100900460ff16156112c45760405162461bcd60e51b81526004016103af9061194b565b806003015442106113075760405162461bcd60e51b815260206004820152600d60248201526c13585c9ad95d0818db1bdcd959609a1b60448201526064016103af565b600083116113575760405162461bcd60e51b815260206004820152601760248201527f416d6f756e74206d75737420626520706f73697469766500000000000000000060448201526064016103af565b6040516323b872dd60e01b8152336004820152306024820152604481018490527f00000000000000000000000000000000000000000000000000000000000000006001600160a01b0316906323b872dd906064016020604051808303816000875af11580156113ca573d6000803e3d6000fd5b505050506040513d601f19601f820116820180604052508101906113ee919061185c565b61140a5760405162461bcd60e51b81526004016103af90611879565b811561145d578281600401600082825461142491906118bd565b90915550506000848152600560209081526040808320338452909152812080548592906114529084906118bd565b909155506114a89050565b8281600501600082825461147191906118bd565b90915550506000848152600560209081526040808320338452909152812060010180548592906114a29084906118bd565b90915550505b60408051831515815260208101859052339186917f4af71b021e799c62c158bd54636ca8da2fa26115a21a2dc6efe486ec104fd15f910160405180910390a350505050565b6040518061012001604052806000815260200160608152602001600081526020016000815260200160008152602001600081526020016000600381111561153657611536611675565b815260006020820181905260409091015290565b80356001600160a01b038116811461156157600080fd5b919050565b60006020828403121561157857600080fd5b6105b68261154a565b80151581146108fd57600080fd5b6000806000606084860312156115a457600080fd5b833592506020840135915060408401356115bd81611581565b809150509250925092565b6000602082840312156115da57600080fd5b5035919050565b600080604083850312156115f457600080fd5b823591506116046020840161154a565b90509250929050565b6000806040838503121561162057600080fd5b50508035926020909101359150565b6000815180845260005b8181101561165557602081850181015186830182015201611639565b506000602082860101526020601f19601f83011685010191505092915050565b634e487b7160e01b600052602160045260246000fd5b600481106116a957634e487b7160e01b600052602160045260246000fd5b9052565b60006101208b83528060208401526116c78184018c61162f565b9150508860408301528760608301528660808301528560a08301526116ef60c083018661168b565b92151560e08201526001600160a01b039190911661010090910152979650505050505050565b6000806000806060858703121561172b57600080fd5b843567ffffffffffffffff8082111561174357600080fd5b818701915087601f83011261175757600080fd5b81358181111561176657600080fd5b88602082850101111561177857600080fd5b6020928301999098509187013596604001359550909350505050565b600080604083850312156117a757600080fd5b823591506020830135600481106117bd57600080fd5b809150509250929050565b6020815281516020820152600060208301516101208060408501526117f161014085018361162f565b91506040850151606085015260608501516080850152608085015160a085015260a085015160c085015260c085015161182d60e086018261168b565b5060e08501516101006118438187018315159052565b909501516001600160a01b031693019290925250919050565b60006020828403121561186e57600080fd5b81516105b681611581565b6020808252601490820152731554d110c81d1c985b9cd9995c8819985a5b195960621b604082015260600190565b634e487b7160e01b600052601160045260246000fd5b80820180821115610b5557610b556118a7565b8082028115828204841417610b5557610b556118a7565b60008261190457634e487b7160e01b600052601260045260246000fd5b500490565b81810381811115610b5557610b556118a7565b60208082526015908201527413585c9ad95d08191bd95cc81b9bdd08195e1a5cdd605a1b604082015260600190565b60208082526017908201527f4d61726b657420616c7265616479207265736f6c766564000000000000000000604082015260600190565b60408101611990828561168b565b8260208301529392505050565b600181811c908216806119b157607f821691505b6020821081036119d157634e487b7160e01b600052602260045260246000fd5b50919050565b6000600182016119e9576119e96118a7565b5060010190565b634e487b7160e01b600052604160045260246000fd5b601f821115611a5057600081815260208120601f850160051c81016020861015611a2d5750805b601f850160051c820191505b81811015611a4c57828155600101611a39565b5050505b505050565b815167ffffffffffffffff811115611a6f57611a6f6119f0565b611a8381611a7d845461199d565b84611a06565b602080601f831160018114611ab85760008415611aa05750858301515b600019600386901b1c1916600185901b178555611a4c565b600085815260208120601f198616915b82811015611ae757888601518255948401946001909101908401611ac8565b5085821015611b055787850151600019600388901b60f8161c191681555b5050505050600190811b01905550565b60808152846080820152848660a0830137600060a0868301810191909152602082019490945260408101929092526001600160a01b03166060820152601f909201601f19169091010191905056fea2646970667358221220c1b28e89ba2ac9f95950b7a8d790b1845dd6c0624e35aa848c482671187025ca64736f6c63430008140033",
  "linkReferences": {},
  "deployedLinkReferences": {}
}